{
  "contractName": "ActorsRegistration",
  "abi": [
    {
      "inputs": [],
      "stateMutability": "nonpayable",
      "type": "constructor"
    },
    {
      "inputs": [
        {
          "internalType": "uint256",
          "name": "",
          "type": "uint256"
        }
      ],
      "name": "companies",
      "outputs": [
        {
          "internalType": "string",
          "name": "",
          "type": "string"
        }
      ],
      "stateMutability": "view",
      "type": "function",
      "constant": true
    },
    {
      "inputs": [
        {
          "internalType": "string",
          "name": "",
          "type": "string"
        }
      ],
      "name": "cutterCompanies",
      "outputs": [
        {
          "internalType": "address",
          "name": "",
          "type": "address"
        }
      ],
      "stateMutability": "view",
      "type": "function",
      "constant": true
    },
    {
      "inputs": [
        {
          "internalType": "address",
          "name": "",
          "type": "address"
        }
      ],
      "name": "cutters",
      "outputs": [
        {
          "internalType": "bool",
          "name": "",
          "type": "bool"
        }
      ],
      "stateMutability": "view",
      "type": "function",
      "constant": true
    },
    {
      "inputs": [
        {
          "internalType": "address",
          "name": "",
          "type": "address"
        }
      ],
      "name": "foresters",
      "outputs": [
        {
          "internalType": "bool",
          "name": "",
          "type": "bool"
        }
      ],
      "stateMutability": "view",
      "type": "function",
      "constant": true
    },
    {
      "inputs": [
        {
          "internalType": "address",
          "name": "foresterAddress",
          "type": "address"
        }
      ],
      "name": "registerForester",
      "outputs": [],
      "stateMutability": "nonpayable",
      "type": "function"
    },
    {
      "inputs": [
        {
          "internalType": "string",
          "name": "cif",
          "type": "string"
        },
        {
          "internalType": "address",
          "name": "cutterAddress",
          "type": "address"
        }
      ],
      "name": "registerCutter",
      "outputs": [],
      "stateMutability": "nonpayable",
      "type": "function"
    },
    {
      "inputs": [
        {
          "internalType": "address",
          "name": "foresterAddress",
          "type": "address"
        }
      ],
      "name": "deleteForester",
      "outputs": [],
      "stateMutability": "nonpayable",
      "type": "function"
    },
    {
      "inputs": [
        {
          "internalType": "string",
          "name": "cif",
          "type": "string"
        }
      ],
      "name": "deleteCutter",
      "outputs": [],
      "stateMutability": "nonpayable",
      "type": "function"
    },
    {
      "inputs": [],
      "name": "getCompaniesCount",
      "outputs": [
        {
          "internalType": "uint256",
          "name": "",
          "type": "uint256"
        }
      ],
      "stateMutability": "view",
      "type": "function",
      "constant": true
    }
  ],
  "bytecode": "0x608060405234801561001057600080fd5b506001600360003373ffffffffffffffffffffffffffffffffffffffff1673ffffffffffffffffffffffffffffffffffffffff16815260200190815260200160002060006101000a81548160ff021916908315150217905550610f77806100786000396000f3fe608060405234801561001057600080fd5b50600436106100935760003560e01c806330d231ee1161006657806330d231ee14610144578063465f6b2b1461016057806386a781aa14610190578063ccb0a334146101ac578063ee0ce00f146101ca57610093565b806305299e5a146100985780632813d19d146100b45780632914263f146100e45780632b9d673814610114575b600080fd5b6100b260048036038101906100ad9190610aa3565b6101e6565b005b6100ce60048036038101906100c99190610b22565b610369565b6040516100db9190610bd7565b60405180910390f35b6100fe60048036038101906100f99190610aa3565b610415565b60405161010b9190610c3a565b60405180910390f35b61012e60048036038101906101299190610c81565b61045e565b60405161013b9190610cc9565b60405180910390f35b61015e60048036038101906101599190610c81565b61047e565b005b61017a60048036038101906101759190610c81565b610565565b6040516101879190610cc9565b60405180910390f35b6101aa60048036038101906101a59190610c81565b610585565b005b6101b461066c565b6040516101c19190610cf3565b60405180910390f35b6101e460048036038101906101df9190610d0e565b610678565b005b600360003373ffffffffffffffffffffffffffffffffffffffff1673ffffffffffffffffffffffffffffffffffffffff16815260200190815260200160002060009054906101000a900460ff16610272576040517f08c379a000000000000000000000000000000000000000000000000000000000815260040161026990610ddc565b60405180910390fd5b6000600260006001846040516102889190610e38565b908152602001604051809103902060009054906101000a900473ffffffffffffffffffffffffffffffffffffffff1673ffffffffffffffffffffffffffffffffffffffff1673ffffffffffffffffffffffffffffffffffffffff16815260200190815260200160002060006101000a81548160ff021916908315150217905550600060018260405161031a9190610e38565b908152602001604051809103902060006101000a81548173ffffffffffffffffffffffffffffffffffffffff021916908373ffffffffffffffffffffffffffffffffffffffff16021790555050565b6000818154811061037957600080fd5b90600052602060002001600091509050805461039490610e7e565b80601f01602080910402602001604051908101604052809291908181526020018280546103c090610e7e565b801561040d5780601f106103e25761010080835404028352916020019161040d565b820191906000526020600020905b8154815290600101906020018083116103f057829003601f168201915b505050505081565b6001818051602081018201805184825260208301602085012081835280955050505050506000915054906101000a900473ffffffffffffffffffffffffffffffffffffffff1681565b60026020528060005260406000206000915054906101000a900460ff1681565b600360003373ffffffffffffffffffffffffffffffffffffffff1673ffffffffffffffffffffffffffffffffffffffff16815260200190815260200160002060009054906101000a900460ff1661050a576040517f08c379a000000000000000000000000000000000000000000000000000000000815260040161050190610ddc565b60405180910390fd5b6001600360008373ffffffffffffffffffffffffffffffffffffffff1673ffffffffffffffffffffffffffffffffffffffff16815260200190815260200160002060006101000a81548160ff02191690831515021790555050565b60036020528060005260406000206000915054906101000a900460ff1681565b600360003373ffffffffffffffffffffffffffffffffffffffff1673ffffffffffffffffffffffffffffffffffffffff16815260200190815260200160002060009054906101000a900460ff16610611576040517f08c379a000000000000000000000000000000000000000000000000000000000815260040161060890610ddc565b60405180910390fd5b6000600360008373ffffffffffffffffffffffffffffffffffffffff1673ffffffffffffffffffffffffffffffffffffffff16815260200190815260200160002060006101000a81548160ff02191690831515021790555050565b60008080549050905090565b600360003373ffffffffffffffffffffffffffffffffffffffff1673ffffffffffffffffffffffffffffffffffffffff16815260200190815260200160002060009054906101000a900460ff16610704576040517f08c379a00000000000000000000000000000000000000000000000000000000081526004016106fb90610ddc565b60405180910390fd5b600073ffffffffffffffffffffffffffffffffffffffff1660018360405161072c9190610e38565b908152602001604051809103902060009054906101000a900473ffffffffffffffffffffffffffffffffffffffff1673ffffffffffffffffffffffffffffffffffffffff16146107b1576040517f08c379a00000000000000000000000000000000000000000000000000000000081526004016107a890610f21565b60405180910390fd5b806001836040516107c29190610e38565b908152602001604051809103902060006101000a81548173ffffffffffffffffffffffffffffffffffffffff021916908373ffffffffffffffffffffffffffffffffffffffff1602179055506001600260008373ffffffffffffffffffffffffffffffffffffffff1673ffffffffffffffffffffffffffffffffffffffff16815260200190815260200160002060006101000a81548160ff0219169083151502179055506000829080600181540180825580915050600190039060005260206000200160009091909190915090805190602001906108a19291906108a6565b505050565b8280546108b290610e7e565b90600052602060002090601f0160209004810192826108d4576000855561091b565b82601f106108ed57805160ff191683800117855561091b565b8280016001018555821561091b579182015b8281111561091a5782518255916020019190600101906108ff565b5b509050610928919061092c565b5090565b5b8082111561094557600081600090555060010161092d565b5090565b6000604051905090565b600080fd5b600080fd5b600080fd5b600080fd5b6000601f19601f8301169050919050565b7f4e487b7100000000000000000000000000000000000000000000000000000000600052604160045260246000fd5b6109b082610967565b810181811067ffffffffffffffff821117156109cf576109ce610978565b5b80604052505050565b60006109e2610949565b90506109ee82826109a7565b919050565b600067ffffffffffffffff821115610a0e57610a0d610978565b5b610a1782610967565b9050602081019050919050565b82818337600083830152505050565b6000610a46610a41846109f3565b6109d8565b905082815260208101848484011115610a6257610a61610962565b5b610a6d848285610a24565b509392505050565b600082601f830112610a8a57610a8961095d565b5b8135610a9a848260208601610a33565b91505092915050565b600060208284031215610ab957610ab8610953565b5b600082013567ffffffffffffffff811115610ad757610ad6610958565b5b610ae384828501610a75565b91505092915050565b6000819050919050565b610aff81610aec565b8114610b0a57600080fd5b50565b600081359050610b1c81610af6565b92915050565b600060208284031215610b3857610b37610953565b5b6000610b4684828501610b0d565b91505092915050565b600081519050919050565b600082825260208201905092915050565b60005b83811015610b89578082015181840152602081019050610b6e565b83811115610b98576000848401525b50505050565b6000610ba982610b4f565b610bb38185610b5a565b9350610bc3818560208601610b6b565b610bcc81610967565b840191505092915050565b60006020820190508181036000830152610bf18184610b9e565b905092915050565b600073ffffffffffffffffffffffffffffffffffffffff82169050919050565b6000610c2482610bf9565b9050919050565b610c3481610c19565b82525050565b6000602082019050610c4f6000830184610c2b565b92915050565b610c5e81610c19565b8114610c6957600080fd5b50565b600081359050610c7b81610c55565b92915050565b600060208284031215610c9757610c96610953565b5b6000610ca584828501610c6c565b91505092915050565b60008115159050919050565b610cc381610cae565b82525050565b6000602082019050610cde6000830184610cba565b92915050565b610ced81610aec565b82525050565b6000602082019050610d086000830184610ce4565b92915050565b60008060408385031215610d2557610d24610953565b5b600083013567ffffffffffffffff811115610d4357610d42610958565b5b610d4f85828601610a75565b9250506020610d6085828601610c6c565b9150509250929050565b7f4e6f74207573696e672061207265676973746572656420666f7265737465722060008201527f6164647265737300000000000000000000000000000000000000000000000000602082015250565b6000610dc6602783610b5a565b9150610dd182610d6a565b604082019050919050565b60006020820190508181036000830152610df581610db9565b9050919050565b600081905092915050565b6000610e1282610b4f565b610e1c8185610dfc565b9350610e2c818560208601610b6b565b80840191505092915050565b6000610e448284610e07565b915081905092915050565b7f4e487b7100000000000000000000000000000000000000000000000000000000600052602260045260246000fd5b60006002820490506001821680610e9657607f821691505b602082108103610ea957610ea8610e4f565b5b50919050565b7f43757474657220636f6d70616e7920616c72656164792072656769737465726560008201527f6400000000000000000000000000000000000000000000000000000000000000602082015250565b6000610f0b602183610b5a565b9150610f1682610eaf565b604082019050919050565b60006020820190508181036000830152610f3a81610efe565b905091905056fea26469706673582212203cf93654a1cb85d918ab44a2fd970098cc0dfa572f51e8967fa7764c05c16c6b64736f6c634300080d0033",
  "immutableReferences": {},
  "source": "// SPDX-License-Identifier: MIT\r\n\r\npragma solidity >=0.4.22 <0.9.0;\r\n\r\ncontract ActorsRegistration {\r\n\r\n    string[] public companies;\r\n    mapping(string => address) public cutterCompanies;\r\n    mapping(address => bool) public cutters;\r\n    mapping(address => bool) public foresters;\r\n\r\n    constructor() {\r\n        foresters[msg.sender] = true;\r\n    }\r\n\r\n    modifier onlyForester {        \r\n        require(foresters[msg.sender], \"Not using a registered forester address\");\r\n        _;\r\n    }\r\n\r\n    function registerForester(address foresterAddress) onlyForester external {\r\n        foresters[foresterAddress] = true;\r\n    }\r\n\r\n    function registerCutter(string memory cif, address cutterAddress) onlyForester external {\r\n        require(cutterCompanies[cif] == address(0), \"Cutter company already registered\");\r\n        cutterCompanies[cif] = cutterAddress;\r\n        cutters[cutterAddress] = true;\r\n        companies.push(cif);\r\n    }\r\n\r\n    function deleteForester(address foresterAddress) onlyForester external {\r\n        foresters[foresterAddress] = false;\r\n    }\r\n\r\n    function deleteCutter(string memory cif) onlyForester external {\r\n        cutters[cutterCompanies[cif]] = false;\r\n        cutterCompanies[cif] = address(0);\r\n    }\r\n\r\n    function getCompaniesCount() external view returns (uint) {\r\n        return companies.length;\r\n    }\r\n}",
  "sourcePath": "D:\\Faculta\\Year_4\\LICENTA\\tree-chain-react\\contracts\\ActorsRegistration.sol",
  "compiler": {
    "name": "solc",
    "version": "0.8.13+commit.abaa5c0e.Emscripten.clang"
  },
  "schemaVersion": "3.4.4",
  "updatedAt": "2022-04-19T09:57:24.177Z",
  "networkType": "ethereum",
  "devdoc": {
    "kind": "dev",
    "methods": {},
    "version": 1
  },
  "userdoc": {
    "kind": "user",
    "methods": {},
    "version": 1
  }
}