{
  "contractName": "ActorsRegistration",
  "abi": [
    {
      "inputs": [],
      "stateMutability": "nonpayable",
      "type": "constructor"
    },
    {
      "inputs": [
        {
          "internalType": "address",
          "name": "",
          "type": "address"
        }
      ],
      "name": "addressCompany",
      "outputs": [
        {
          "internalType": "bytes8",
          "name": "",
          "type": "bytes8"
        }
      ],
      "stateMutability": "view",
      "type": "function",
      "constant": true
    },
    {
      "inputs": [
        {
          "internalType": "uint256",
          "name": "",
          "type": "uint256"
        }
      ],
      "name": "companies",
      "outputs": [
        {
          "internalType": "bytes8",
          "name": "",
          "type": "bytes8"
        }
      ],
      "stateMutability": "view",
      "type": "function",
      "constant": true
    },
    {
      "inputs": [
        {
          "internalType": "bytes8",
          "name": "",
          "type": "bytes8"
        }
      ],
      "name": "companyInfo",
      "outputs": [
        {
          "internalType": "string",
          "name": "name",
          "type": "string"
        },
        {
          "internalType": "bytes10",
          "name": "phone",
          "type": "bytes10"
        },
        {
          "internalType": "address",
          "name": "walletAddress",
          "type": "address"
        }
      ],
      "stateMutability": "view",
      "type": "function",
      "constant": true
    },
    {
      "inputs": [
        {
          "internalType": "address",
          "name": "",
          "type": "address"
        }
      ],
      "name": "foresters",
      "outputs": [
        {
          "internalType": "bool",
          "name": "",
          "type": "bool"
        }
      ],
      "stateMutability": "view",
      "type": "function",
      "constant": true
    },
    {
      "inputs": [
        {
          "internalType": "address",
          "name": "foresterAddress",
          "type": "address"
        }
      ],
      "name": "registerForester",
      "outputs": [],
      "stateMutability": "nonpayable",
      "type": "function"
    },
    {
      "inputs": [
        {
          "internalType": "bytes8",
          "name": "tin",
          "type": "bytes8"
        },
        {
          "internalType": "string",
          "name": "name",
          "type": "string"
        },
        {
          "internalType": "bytes10",
          "name": "phone",
          "type": "bytes10"
        },
        {
          "internalType": "address",
          "name": "walletAddress",
          "type": "address"
        }
      ],
      "name": "registerCutter",
      "outputs": [],
      "stateMutability": "nonpayable",
      "type": "function"
    },
    {
      "inputs": [],
      "name": "getCompaniesCount",
      "outputs": [
        {
          "internalType": "uint256",
          "name": "",
          "type": "uint256"
        }
      ],
      "stateMutability": "view",
      "type": "function",
      "constant": true
    },
    {
      "inputs": [
        {
          "internalType": "bytes8",
          "name": "tin",
          "type": "bytes8"
        }
      ],
      "name": "getCompanyAddress",
      "outputs": [
        {
          "internalType": "address",
          "name": "",
          "type": "address"
        }
      ],
      "stateMutability": "view",
      "type": "function",
      "constant": true
    }
  ],
  "bytecode": "0x608060405234801561000f575f80fd5b50600160035f3373ffffffffffffffffffffffffffffffffffffffff1673ffffffffffffffffffffffffffffffffffffffff1681526020019081526020015f205f6101000a81548160ff0219169083151502179055506111a2806100725f395ff3fe608060405234801561000f575f80fd5b5060043610610086575f3560e01c8063465f6b2b11610059578063465f6b2b146101225780638518800014610152578063ccb0a33414610182578063ed33ef38146101a057610086565b806315334fb31461008a5780632813d19d146100ba57806330d231ee146100ea5780633a5d5dca14610106575b5f80fd5b6100a4600480360381019061009f919061086f565b6101d2565b6040516100b191906108d4565b60405180910390f35b6100d460048036038101906100cf9190610920565b6101ef565b6040516100e191906108d4565b60405180910390f35b61010460048036038101906100ff919061086f565b610222565b005b610120600480360381019061011b9190610b06565b610303565b005b61013c6004803603810190610137919061086f565b610691565b6040516101499190610ba0565b60405180910390f35b61016c60048036038101906101679190610bb9565b6106ae565b6040516101799190610bf3565b60405180910390f35b61018a610721565b6040516101979190610c1b565b60405180910390f35b6101ba60048036038101906101b59190610bb9565b61072c565b6040516101c993929190610cbd565b60405180910390f35b6002602052805f5260405f205f915054906101000a900460c01b81565b5f81815481106101fd575f80fd5b905f5260205f209060049182820401919006600802915054906101000a900460c01b81565b60035f3373ffffffffffffffffffffffffffffffffffffffff1673ffffffffffffffffffffffffffffffffffffffff1681526020019081526020015f205f9054906101000a900460ff166102ab576040517f08c379a00000000000000000000000000000000000000000000000000000000081526004016102a290610d69565b60405180910390fd5b600160035f8373ffffffffffffffffffffffffffffffffffffffff1673ffffffffffffffffffffffffffffffffffffffff1681526020019081526020015f205f6101000a81548160ff02191690831515021790555050565b60035f3373ffffffffffffffffffffffffffffffffffffffff1673ffffffffffffffffffffffffffffffffffffffff1681526020019081526020015f205f9054906101000a900460ff1661038c576040517f08c379a000000000000000000000000000000000000000000000000000000000815260040161038390610d69565b60405180910390fd5b5f73ffffffffffffffffffffffffffffffffffffffff166103ac856106ae565b73ffffffffffffffffffffffffffffffffffffffff1614610402576040517f08c379a00000000000000000000000000000000000000000000000000000000081526004016103f990610df7565b60405180910390fd5b5f60c01b77ffffffffffffffffffffffffffffffffffffffffffffffff191660025f8373ffffffffffffffffffffffffffffffffffffffff1673ffffffffffffffffffffffffffffffffffffffff1681526020019081526020015f205f9054906101000a900460c01b77ffffffffffffffffffffffffffffffffffffffffffffffff1916146104c6576040517f08c379a00000000000000000000000000000000000000000000000000000000081526004016104bd90610e85565b60405180910390fd5b5f60405180606001604052808581526020018475ffffffffffffffffffffffffffffffffffffffffffff191681526020018373ffffffffffffffffffffffffffffffffffffffff1681525090508060015f8777ffffffffffffffffffffffffffffffffffffffffffffffff191677ffffffffffffffffffffffffffffffffffffffffffffffff191681526020019081526020015f205f820151815f01908161056e919061109d565b506020820151816001015f6101000a81548169ffffffffffffffffffff021916908360b01c0217905550604082015181600101600a6101000a81548173ffffffffffffffffffffffffffffffffffffffff021916908373ffffffffffffffffffffffffffffffffffffffff1602179055509050505f85908060018154018082558091505060019003905f5260205f2090600491828204019190066008029091909190916101000a81548167ffffffffffffffff021916908360c01c02179055508460025f8473ffffffffffffffffffffffffffffffffffffffff1673ffffffffffffffffffffffffffffffffffffffff1681526020019081526020015f205f6101000a81548167ffffffffffffffff021916908360c01c02179055505050505050565b6003602052805f5260405f205f915054906101000a900460ff1681565b5f60015f8377ffffffffffffffffffffffffffffffffffffffffffffffff191677ffffffffffffffffffffffffffffffffffffffffffffffff191681526020019081526020015f20600101600a9054906101000a900473ffffffffffffffffffffffffffffffffffffffff169050919050565b5f8080549050905090565b6001602052805f5260405f205f91509050805f01805461074b90610ed0565b80601f016020809104026020016040519081016040528092919081815260200182805461077790610ed0565b80156107c25780601f10610799576101008083540402835291602001916107c2565b820191905f5260205f20905b8154815290600101906020018083116107a557829003601f168201915b505050505090806001015f9054906101000a900460b01b9080600101600a9054906101000a900473ffffffffffffffffffffffffffffffffffffffff16905083565b5f604051905090565b5f80fd5b5f80fd5b5f73ffffffffffffffffffffffffffffffffffffffff82169050919050565b5f61083e82610815565b9050919050565b61084e81610834565b8114610858575f80fd5b50565b5f8135905061086981610845565b92915050565b5f602082840312156108845761088361080d565b5b5f6108918482850161085b565b91505092915050565b5f7fffffffffffffffff00000000000000000000000000000000000000000000000082169050919050565b6108ce8161089a565b82525050565b5f6020820190506108e75f8301846108c5565b92915050565b5f819050919050565b6108ff816108ed565b8114610909575f80fd5b50565b5f8135905061091a816108f6565b92915050565b5f602082840312156109355761093461080d565b5b5f6109428482850161090c565b91505092915050565b6109548161089a565b811461095e575f80fd5b50565b5f8135905061096f8161094b565b92915050565b5f80fd5b5f80fd5b5f601f19601f8301169050919050565b7f4e487b71000000000000000000000000000000000000000000000000000000005f52604160045260245ffd5b6109c38261097d565b810181811067ffffffffffffffff821117156109e2576109e161098d565b5b80604052505050565b5f6109f4610804565b9050610a0082826109ba565b919050565b5f67ffffffffffffffff821115610a1f57610a1e61098d565b5b610a288261097d565b9050602081019050919050565b828183375f83830152505050565b5f610a55610a5084610a05565b6109eb565b905082815260208101848484011115610a7157610a70610979565b5b610a7c848285610a35565b509392505050565b5f82601f830112610a9857610a97610975565b5b8135610aa8848260208601610a43565b91505092915050565b5f7fffffffffffffffffffff0000000000000000000000000000000000000000000082169050919050565b610ae581610ab1565b8114610aef575f80fd5b50565b5f81359050610b0081610adc565b92915050565b5f805f8060808587031215610b1e57610b1d61080d565b5b5f610b2b87828801610961565b945050602085013567ffffffffffffffff811115610b4c57610b4b610811565b5b610b5887828801610a84565b9350506040610b6987828801610af2565b9250506060610b7a8782880161085b565b91505092959194509250565b5f8115159050919050565b610b9a81610b86565b82525050565b5f602082019050610bb35f830184610b91565b92915050565b5f60208284031215610bce57610bcd61080d565b5b5f610bdb84828501610961565b91505092915050565b610bed81610834565b82525050565b5f602082019050610c065f830184610be4565b92915050565b610c15816108ed565b82525050565b5f602082019050610c2e5f830184610c0c565b92915050565b5f81519050919050565b5f82825260208201905092915050565b5f5b83811015610c6b578082015181840152602081019050610c50565b5f8484015250505050565b5f610c8082610c34565b610c8a8185610c3e565b9350610c9a818560208601610c4e565b610ca38161097d565b840191505092915050565b610cb781610ab1565b82525050565b5f6060820190508181035f830152610cd58186610c76565b9050610ce46020830185610cae565b610cf16040830184610be4565b949350505050565b7f4e6f74207573696e672061207265676973746572656420666f726573746572205f8201527f6164647265737300000000000000000000000000000000000000000000000000602082015250565b5f610d53602783610c3e565b9150610d5e82610cf9565b604082019050919050565b5f6020820190508181035f830152610d8081610d47565b9050919050565b7f43757474657220636f6d70616e7920616c7265616479207265676973746572655f8201527f6400000000000000000000000000000000000000000000000000000000000000602082015250565b5f610de1602183610c3e565b9150610dec82610d87565b604082019050919050565b5f6020820190508181035f830152610e0e81610dd5565b9050919050565b7f457468657265756d206164647265737320616c726561647920757365642062795f8201527f20616e6f7468657220636f6d70616e7900000000000000000000000000000000602082015250565b5f610e6f603083610c3e565b9150610e7a82610e15565b604082019050919050565b5f6020820190508181035f830152610e9c81610e63565b9050919050565b7f4e487b71000000000000000000000000000000000000000000000000000000005f52602260045260245ffd5b5f6002820490506001821680610ee757607f821691505b602082108103610efa57610ef9610ea3565b5b50919050565b5f819050815f5260205f209050919050565b5f6020601f8301049050919050565b5f82821b905092915050565b5f60088302610f5c7fffffffffffffffffffffffffffffffffffffffffffffffffffffffffffffffff82610f21565b610f668683610f21565b95508019841693508086168417925050509392505050565b5f819050919050565b5f610fa1610f9c610f97846108ed565b610f7e565b6108ed565b9050919050565b5f819050919050565b610fba83610f87565b610fce610fc682610fa8565b848454610f2d565b825550505050565b5f90565b610fe2610fd6565b610fed818484610fb1565b505050565b5b81811015611010576110055f82610fda565b600181019050610ff3565b5050565b601f8211156110555761102681610f00565b61102f84610f12565b8101602085101561103e578190505b61105261104a85610f12565b830182610ff2565b50505b505050565b5f82821c905092915050565b5f6110755f198460080261105a565b1980831691505092915050565b5f61108d8383611066565b9150826002028217905092915050565b6110a682610c34565b67ffffffffffffffff8111156110bf576110be61098d565b5b6110c98254610ed0565b6110d4828285611014565b5f60209050601f831160018114611105575f84156110f3578287015190505b6110fd8582611082565b865550611164565b601f19841661111386610f00565b5f5b8281101561113a57848901518255600182019150602085019450602081019050611115565b868310156111575784890151611153601f891682611066565b8355505b6001600288020188555050505b50505050505056fea2646970667358221220a3c76bdc3f0e0033cdacd56d1fba0dd7c0204e4e5ff1acc9a8b96c9057e1380964736f6c63430008150033",
  "immutableReferences": {},
  "source": "// SPDX-License-Identifier: MIT\r\n\r\npragma solidity >=0.4.22 <0.9.0;\r\n\r\ncontract ActorsRegistration {\r\n\r\n    struct Company {\r\n        string name;\r\n        bytes10 phone;\r\n        address walletAddress;\r\n    }\r\n\r\n    bytes8[] public companies;\r\n    mapping(bytes8 => Company) public companyInfo;\r\n    mapping(address => bytes8) public addressCompany;\r\n    mapping(address => bool) public foresters;\r\n\r\n    constructor() {\r\n        foresters[msg.sender] = true;\r\n    }\r\n\r\n    modifier onlyForester {        \r\n        require(foresters[msg.sender], \"Not using a registered forester address\");\r\n        _;\r\n    }\r\n\r\n    function registerForester(address foresterAddress) onlyForester external {\r\n        foresters[foresterAddress] = true;\r\n    }\r\n\r\n    function registerCutter(bytes8 tin, string memory name, bytes10 phone, address walletAddress) onlyForester external {\r\n        require(getCompanyAddress(tin) == address(0), \"Cutter company already registered\");\r\n        require(addressCompany[walletAddress] == bytes8(0), \"Ethereum address already used by another company\");\r\n\r\n        Company memory company = Company(name, phone, walletAddress);\r\n        companyInfo[tin] = company;\r\n        companies.push(tin);\r\n        addressCompany[walletAddress] = tin;\r\n    }\r\n\r\n    function getCompaniesCount() external view returns (uint) {\r\n        return companies.length;\r\n    }\r\n\r\n    function getCompanyAddress(bytes8 tin) public view returns (address) {\r\n        return companyInfo[tin].walletAddress;\r\n    }\r\n}",
  "sourcePath": "D:\\Code\\tree-buddy\\contracts\\ActorsRegistration.sol",
  "compiler": {
    "name": "solc",
    "version": "0.8.21+commit.d9974bed.Emscripten.clang"
  },
  "schemaVersion": "3.4.4",
  "updatedAt": "2023-08-31T11:48:14.031Z",
  "networkType": "ethereum",
  "devdoc": {
    "kind": "dev",
    "methods": {},
    "version": 1
  },
  "userdoc": {
    "kind": "user",
    "methods": {},
    "version": 1
  }
}