{
  "contractName": "ActorsRegistration",
  "abi": [
    {
      "inputs": [],
      "stateMutability": "nonpayable",
      "type": "constructor"
    },
    {
      "inputs": [
        {
          "internalType": "address",
          "name": "",
          "type": "address"
        }
      ],
      "name": "addressCompany",
      "outputs": [
        {
          "internalType": "bytes8",
          "name": "",
          "type": "bytes8"
        }
      ],
      "stateMutability": "view",
      "type": "function"
    },
    {
      "inputs": [
        {
          "internalType": "uint256",
          "name": "",
          "type": "uint256"
        }
      ],
      "name": "companies",
      "outputs": [
        {
          "internalType": "bytes8",
          "name": "",
          "type": "bytes8"
        }
      ],
      "stateMutability": "view",
      "type": "function"
    },
    {
      "inputs": [
        {
          "internalType": "bytes8",
          "name": "",
          "type": "bytes8"
        }
      ],
      "name": "companyInfo",
      "outputs": [
        {
          "internalType": "string",
          "name": "name",
          "type": "string"
        },
        {
          "internalType": "bytes10",
          "name": "phone",
          "type": "bytes10"
        },
        {
          "internalType": "address",
          "name": "walletAddress",
          "type": "address"
        }
      ],
      "stateMutability": "view",
      "type": "function"
    },
    {
      "inputs": [
        {
          "internalType": "address",
          "name": "",
          "type": "address"
        }
      ],
      "name": "foresters",
      "outputs": [
        {
          "internalType": "bool",
          "name": "",
          "type": "bool"
        }
      ],
      "stateMutability": "view",
      "type": "function"
    },
    {
      "inputs": [
        {
          "internalType": "address",
          "name": "foresterAddress",
          "type": "address"
        }
      ],
      "name": "registerForester",
      "outputs": [],
      "stateMutability": "nonpayable",
      "type": "function"
    },
    {
      "inputs": [
        {
          "internalType": "bytes8",
          "name": "tin",
          "type": "bytes8"
        },
        {
          "internalType": "string",
          "name": "name",
          "type": "string"
        },
        {
          "internalType": "bytes10",
          "name": "phone",
          "type": "bytes10"
        },
        {
          "internalType": "address",
          "name": "walletAddress",
          "type": "address"
        }
      ],
      "name": "registerCutter",
      "outputs": [],
      "stateMutability": "nonpayable",
      "type": "function"
    },
    {
      "inputs": [],
      "name": "getCompaniesCount",
      "outputs": [
        {
          "internalType": "uint256",
          "name": "",
          "type": "uint256"
        }
      ],
      "stateMutability": "view",
      "type": "function"
    },
    {
      "inputs": [
        {
          "internalType": "bytes8",
          "name": "tin",
          "type": "bytes8"
        }
      ],
      "name": "getCompanyAddress",
      "outputs": [
        {
          "internalType": "address",
          "name": "",
          "type": "address"
        }
      ],
      "stateMutability": "view",
      "type": "function"
    }
  ],
  "bytecode": "0x608060405234801561001057600080fd5b506001600360003373ffffffffffffffffffffffffffffffffffffffff1673ffffffffffffffffffffffffffffffffffffffff16815260200190815260200160002060006101000a81548160ff021916908315150217905550610f03806100786000396000f3fe608060405234801561001057600080fd5b50600436106100885760003560e01c8063465f6b2b1161005b578063465f6b2b146101255780638518800014610155578063ccb0a33414610185578063ed33ef38146101a357610088565b806315334fb31461008d5780632813d19d146100bd57806330d231ee146100ed5780633a5d5dca14610109575b600080fd5b6100a760048036038101906100a2919061088a565b6101d5565b6040516100b491906108f2565b60405180910390f35b6100d760048036038101906100d29190610943565b6101f5565b6040516100e491906108f2565b60405180910390f35b6101076004803603810190610102919061088a565b61022c565b005b610123600480360381019061011e9190610b3a565b610313565b005b61013f600480360381019061013a919061088a565b6105f4565b60405161014c9190610bd8565b60405180910390f35b61016f600480360381019061016a9190610bf3565b610614565b60405161017c9190610c2f565b60405180910390f35b61018d61068a565b60405161019a9190610c59565b60405180910390f35b6101bd60048036038101906101b89190610bf3565b610696565b6040516101cc93929190610d0b565b60405180910390f35b60026020528060005260406000206000915054906101000a900460c01b81565b6000818154811061020557600080fd5b9060005260206000209060049182820401919006600802915054906101000a900460c01b81565b600360003373ffffffffffffffffffffffffffffffffffffffff1673ffffffffffffffffffffffffffffffffffffffff16815260200190815260200160002060009054906101000a900460ff166102b8576040517f08c379a00000000000000000000000000000000000000000000000000000000081526004016102af90610dbb565b60405180910390fd5b6001600360008373ffffffffffffffffffffffffffffffffffffffff1673ffffffffffffffffffffffffffffffffffffffff16815260200190815260200160002060006101000a81548160ff02191690831515021790555050565b600360003373ffffffffffffffffffffffffffffffffffffffff1673ffffffffffffffffffffffffffffffffffffffff16815260200190815260200160002060009054906101000a900460ff1661039f576040517f08c379a000000000000000000000000000000000000000000000000000000000815260040161039690610dbb565b60405180910390fd5b600073ffffffffffffffffffffffffffffffffffffffff166103c085610614565b73ffffffffffffffffffffffffffffffffffffffff1614610416576040517f08c379a000000000000000000000000000000000000000000000000000000000815260040161040d90610e4d565b60405180910390fd5b600060405180606001604052808581526020018475ffffffffffffffffffffffffffffffffffffffffffff191681526020018373ffffffffffffffffffffffffffffffffffffffff16815250905080600160008777ffffffffffffffffffffffffffffffffffffffffffffffff191677ffffffffffffffffffffffffffffffffffffffffffffffff1916815260200190815260200160002060008201518160000190805190602001906104ca929190610775565b5060208201518160010160006101000a81548169ffffffffffffffffffff021916908360b01c0217905550604082015181600101600a6101000a81548173ffffffffffffffffffffffffffffffffffffffff021916908373ffffffffffffffffffffffffffffffffffffffff16021790555090505060008590806001815401808255809150506001900390600052602060002090600491828204019190066008029091909190916101000a81548167ffffffffffffffff021916908360c01c021790555084600260008473ffffffffffffffffffffffffffffffffffffffff1673ffffffffffffffffffffffffffffffffffffffff16815260200190815260200160002060006101000a81548167ffffffffffffffff021916908360c01c02179055505050505050565b60036020528060005260406000206000915054906101000a900460ff1681565b6000600160008377ffffffffffffffffffffffffffffffffffffffffffffffff191677ffffffffffffffffffffffffffffffffffffffffffffffff19168152602001908152602001600020600101600a9054906101000a900473ffffffffffffffffffffffffffffffffffffffff169050919050565b60008080549050905090565b60016020528060005260406000206000915090508060000180546106b990610e9c565b80601f01602080910402602001604051908101604052809291908181526020018280546106e590610e9c565b80156107325780601f1061070757610100808354040283529160200191610732565b820191906000526020600020905b81548152906001019060200180831161071557829003601f168201915b5050505050908060010160009054906101000a900460b01b9080600101600a9054906101000a900473ffffffffffffffffffffffffffffffffffffffff16905083565b82805461078190610e9c565b90600052602060002090601f0160209004810192826107a357600085556107ea565b82601f106107bc57805160ff19168380011785556107ea565b828001600101855582156107ea579182015b828111156107e95782518255916020019190600101906107ce565b5b5090506107f791906107fb565b5090565b5b808211156108145760008160009055506001016107fc565b5090565b6000604051905090565b600080fd5b600080fd5b600073ffffffffffffffffffffffffffffffffffffffff82169050919050565b60006108578261082c565b9050919050565b6108678161084c565b811461087257600080fd5b50565b6000813590506108848161085e565b92915050565b6000602082840312156108a05761089f610822565b5b60006108ae84828501610875565b91505092915050565b60007fffffffffffffffff00000000000000000000000000000000000000000000000082169050919050565b6108ec816108b7565b82525050565b600060208201905061090760008301846108e3565b92915050565b6000819050919050565b6109208161090d565b811461092b57600080fd5b50565b60008135905061093d81610917565b92915050565b60006020828403121561095957610958610822565b5b60006109678482850161092e565b91505092915050565b610979816108b7565b811461098457600080fd5b50565b60008135905061099681610970565b92915050565b600080fd5b600080fd5b6000601f19601f8301169050919050565b7f4e487b7100000000000000000000000000000000000000000000000000000000600052604160045260246000fd5b6109ef826109a6565b810181811067ffffffffffffffff82111715610a0e57610a0d6109b7565b5b80604052505050565b6000610a21610818565b9050610a2d82826109e6565b919050565b600067ffffffffffffffff821115610a4d57610a4c6109b7565b5b610a56826109a6565b9050602081019050919050565b82818337600083830152505050565b6000610a85610a8084610a32565b610a17565b905082815260208101848484011115610aa157610aa06109a1565b5b610aac848285610a63565b509392505050565b600082601f830112610ac957610ac861099c565b5b8135610ad9848260208601610a72565b91505092915050565b60007fffffffffffffffffffff0000000000000000000000000000000000000000000082169050919050565b610b1781610ae2565b8114610b2257600080fd5b50565b600081359050610b3481610b0e565b92915050565b60008060008060808587031215610b5457610b53610822565b5b6000610b6287828801610987565b945050602085013567ffffffffffffffff811115610b8357610b82610827565b5b610b8f87828801610ab4565b9350506040610ba087828801610b25565b9250506060610bb187828801610875565b91505092959194509250565b60008115159050919050565b610bd281610bbd565b82525050565b6000602082019050610bed6000830184610bc9565b92915050565b600060208284031215610c0957610c08610822565b5b6000610c1784828501610987565b91505092915050565b610c298161084c565b82525050565b6000602082019050610c446000830184610c20565b92915050565b610c538161090d565b82525050565b6000602082019050610c6e6000830184610c4a565b92915050565b600081519050919050565b600082825260208201905092915050565b60005b83811015610cae578082015181840152602081019050610c93565b83811115610cbd576000848401525b50505050565b6000610cce82610c74565b610cd88185610c7f565b9350610ce8818560208601610c90565b610cf1816109a6565b840191505092915050565b610d0581610ae2565b82525050565b60006060820190508181036000830152610d258186610cc3565b9050610d346020830185610cfc565b610d416040830184610c20565b949350505050565b7f4e6f74207573696e672061207265676973746572656420666f7265737465722060008201527f6164647265737300000000000000000000000000000000000000000000000000602082015250565b6000610da5602783610c7f565b9150610db082610d49565b604082019050919050565b60006020820190508181036000830152610dd481610d98565b9050919050565b7f43757474657220636f6d70616e7920616c72656164792072656769737465726560008201527f6400000000000000000000000000000000000000000000000000000000000000602082015250565b6000610e37602183610c7f565b9150610e4282610ddb565b604082019050919050565b60006020820190508181036000830152610e6681610e2a565b9050919050565b7f4e487b7100000000000000000000000000000000000000000000000000000000600052602260045260246000fd5b60006002820490506001821680610eb457607f821691505b602082108103610ec757610ec6610e6d565b5b5091905056fea26469706673582212202bf7afa718d073d593bb471baa8d058bb94dc3e98d38751573681132b22f113c64736f6c634300080e0033",
  "immutableReferences": {},
  "source": "// SPDX-License-Identifier: MIT\r\n\r\npragma solidity >=0.4.22 <0.9.0;\r\n\r\ncontract ActorsRegistration {\r\n\r\n    struct Company {\r\n        string name;\r\n        bytes10 phone;\r\n        address walletAddress;\r\n    }\r\n\r\n    bytes8[] public companies;\r\n    mapping(bytes8 => Company) public companyInfo;\r\n    mapping(address => bytes8) public addressCompany;\r\n    mapping(address => bool) public foresters;\r\n\r\n    constructor() {\r\n        foresters[msg.sender] = true;\r\n    }\r\n\r\n    modifier onlyForester {        \r\n        require(foresters[msg.sender], \"Not using a registered forester address\");\r\n        _;\r\n    }\r\n\r\n    function registerForester(address foresterAddress) onlyForester external {\r\n        foresters[foresterAddress] = true;\r\n    }\r\n\r\n    function registerCutter(bytes8 tin, string memory name, bytes10 phone, address walletAddress) onlyForester external {\r\n        require(getCompanyAddress(tin) == address(0), \"Cutter company already registered\");\r\n\r\n        Company memory company = Company(name, phone, walletAddress);\r\n        companyInfo[tin] = company;\r\n        companies.push(tin);\r\n        addressCompany[walletAddress] = tin;\r\n    }\r\n\r\n    function getCompaniesCount() external view returns (uint) {\r\n        return companies.length;\r\n    }\r\n\r\n    function getCompanyAddress(bytes8 tin) public view returns (address) {\r\n        return companyInfo[tin].walletAddress;\r\n    }\r\n}",
  "sourcePath": "D:\\Faculta\\Year_4\\LICENTA\\tree-chain-react\\contracts\\ActorsRegistration.sol",
  "compiler": {
    "name": "solc",
    "version": "0.8.14+commit.80d49f37.Emscripten.clang"
  },
  "schemaVersion": "3.4.4",
  "updatedAt": "2022-06-05T20:11:28.239Z",
  "devdoc": {
    "kind": "dev",
    "methods": {},
    "version": 1
  },
  "userdoc": {
    "kind": "user",
    "methods": {},
    "version": 1
  }
}