{
  "contractName": "ActorsRegistration",
  "abi": [
    {
      "inputs": [],
      "stateMutability": "nonpayable",
      "type": "constructor"
    },
    {
      "inputs": [
        {
          "internalType": "uint256",
          "name": "",
          "type": "uint256"
        }
      ],
      "name": "companies",
      "outputs": [
        {
          "internalType": "string",
          "name": "",
          "type": "string"
        }
      ],
      "stateMutability": "view",
      "type": "function",
      "constant": true
    },
    {
      "inputs": [
        {
          "internalType": "string",
          "name": "",
          "type": "string"
        }
      ],
      "name": "cutterCompanies",
      "outputs": [
        {
          "internalType": "address",
          "name": "",
          "type": "address"
        }
      ],
      "stateMutability": "view",
      "type": "function",
      "constant": true
    },
    {
      "inputs": [
        {
          "internalType": "address",
          "name": "",
          "type": "address"
        }
      ],
      "name": "foresters",
      "outputs": [
        {
          "internalType": "bool",
          "name": "",
          "type": "bool"
        }
      ],
      "stateMutability": "view",
      "type": "function",
      "constant": true
    },
    {
      "inputs": [
        {
          "internalType": "address",
          "name": "foresterAddress",
          "type": "address"
        }
      ],
      "name": "registerForester",
      "outputs": [],
      "stateMutability": "nonpayable",
      "type": "function"
    },
    {
      "inputs": [
        {
          "internalType": "string",
          "name": "cif",
          "type": "string"
        },
        {
          "internalType": "address",
          "name": "cutterAddress",
          "type": "address"
        }
      ],
      "name": "registerCutter",
      "outputs": [],
      "stateMutability": "nonpayable",
      "type": "function"
    },
    {
      "inputs": [
        {
          "internalType": "address",
          "name": "foresterAddress",
          "type": "address"
        }
      ],
      "name": "deleteForester",
      "outputs": [],
      "stateMutability": "nonpayable",
      "type": "function"
    },
    {
      "inputs": [
        {
          "internalType": "string",
          "name": "cif",
          "type": "string"
        }
      ],
      "name": "deleteCutter",
      "outputs": [],
      "stateMutability": "nonpayable",
      "type": "function"
    },
    {
      "inputs": [],
      "name": "getCompaniesCount",
      "outputs": [
        {
          "internalType": "uint256",
          "name": "",
          "type": "uint256"
        }
      ],
      "stateMutability": "view",
      "type": "function",
      "constant": true
    }
  ],
  "bytecode": "0x608060405234801561001057600080fd5b506001600260003373ffffffffffffffffffffffffffffffffffffffff1673ffffffffffffffffffffffffffffffffffffffff16815260200190815260200160002060006101000a81548160ff021916908315150217905550610cef806100786000396000f3fe608060405234801561001057600080fd5b50600436106100885760003560e01c8063465f6b2b1161005b578063465f6b2b1461012557806386a781aa14610155578063ccb0a33414610171578063ee0ce00f1461018f57610088565b806305299e5a1461008d5780632813d19d146100a95780632914263f146100d957806330d231ee14610109575b600080fd5b6100a760048036038101906100a291906108ad565b6101ab565b005b6100c360048036038101906100be919061092c565b610298565b6040516100d091906109e1565b60405180910390f35b6100f360048036038101906100ee91906108ad565b610344565b6040516101009190610a44565b60405180910390f35b610123600480360381019061011e9190610a8b565b61038d565b005b61013f600480360381019061013a9190610a8b565b610474565b60405161014c9190610ad3565b60405180910390f35b61016f600480360381019061016a9190610a8b565b610494565b005b61017961057b565b6040516101869190610afd565b60405180910390f35b6101a960048036038101906101a49190610b18565b610587565b005b600260003373ffffffffffffffffffffffffffffffffffffffff1673ffffffffffffffffffffffffffffffffffffffff16815260200190815260200160002060009054906101000a900460ff16610237576040517f08c379a000000000000000000000000000000000000000000000000000000000815260040161022e90610be6565b60405180910390fd5b60006001826040516102499190610c42565b908152602001604051809103902060006101000a81548173ffffffffffffffffffffffffffffffffffffffff021916908373ffffffffffffffffffffffffffffffffffffffff16021790555050565b600081815481106102a857600080fd5b9060005260206000200160009150905080546102c390610c88565b80601f01602080910402602001604051908101604052809291908181526020018280546102ef90610c88565b801561033c5780601f106103115761010080835404028352916020019161033c565b820191906000526020600020905b81548152906001019060200180831161031f57829003601f168201915b505050505081565b6001818051602081018201805184825260208301602085012081835280955050505050506000915054906101000a900473ffffffffffffffffffffffffffffffffffffffff1681565b600260003373ffffffffffffffffffffffffffffffffffffffff1673ffffffffffffffffffffffffffffffffffffffff16815260200190815260200160002060009054906101000a900460ff16610419576040517f08c379a000000000000000000000000000000000000000000000000000000000815260040161041090610be6565b60405180910390fd5b6001600260008373ffffffffffffffffffffffffffffffffffffffff1673ffffffffffffffffffffffffffffffffffffffff16815260200190815260200160002060006101000a81548160ff02191690831515021790555050565b60026020528060005260406000206000915054906101000a900460ff1681565b600260003373ffffffffffffffffffffffffffffffffffffffff1673ffffffffffffffffffffffffffffffffffffffff16815260200190815260200160002060009054906101000a900460ff16610520576040517f08c379a000000000000000000000000000000000000000000000000000000000815260040161051790610be6565b60405180910390fd5b6000600260008373ffffffffffffffffffffffffffffffffffffffff1673ffffffffffffffffffffffffffffffffffffffff16815260200190815260200160002060006101000a81548160ff02191690831515021790555050565b60008080549050905090565b600260003373ffffffffffffffffffffffffffffffffffffffff1673ffffffffffffffffffffffffffffffffffffffff16815260200190815260200160002060009054906101000a900460ff16610613576040517f08c379a000000000000000000000000000000000000000000000000000000000815260040161060a90610be6565b60405180910390fd5b806001836040516106249190610c42565b908152602001604051809103902060006101000a81548173ffffffffffffffffffffffffffffffffffffffff021916908373ffffffffffffffffffffffffffffffffffffffff1602179055506000829080600181540180825580915050600190039060005260206000200160009091909190915090805190602001906106ab9291906106b0565b505050565b8280546106bc90610c88565b90600052602060002090601f0160209004810192826106de5760008555610725565b82601f106106f757805160ff1916838001178555610725565b82800160010185558215610725579182015b82811115610724578251825591602001919060010190610709565b5b5090506107329190610736565b5090565b5b8082111561074f576000816000905550600101610737565b5090565b6000604051905090565b600080fd5b600080fd5b600080fd5b600080fd5b6000601f19601f8301169050919050565b7f4e487b7100000000000000000000000000000000000000000000000000000000600052604160045260246000fd5b6107ba82610771565b810181811067ffffffffffffffff821117156107d9576107d8610782565b5b80604052505050565b60006107ec610753565b90506107f882826107b1565b919050565b600067ffffffffffffffff82111561081857610817610782565b5b61082182610771565b9050602081019050919050565b82818337600083830152505050565b600061085061084b846107fd565b6107e2565b90508281526020810184848401111561086c5761086b61076c565b5b61087784828561082e565b509392505050565b600082601f83011261089457610893610767565b5b81356108a484826020860161083d565b91505092915050565b6000602082840312156108c3576108c261075d565b5b600082013567ffffffffffffffff8111156108e1576108e0610762565b5b6108ed8482850161087f565b91505092915050565b6000819050919050565b610909816108f6565b811461091457600080fd5b50565b60008135905061092681610900565b92915050565b6000602082840312156109425761094161075d565b5b600061095084828501610917565b91505092915050565b600081519050919050565b600082825260208201905092915050565b60005b83811015610993578082015181840152602081019050610978565b838111156109a2576000848401525b50505050565b60006109b382610959565b6109bd8185610964565b93506109cd818560208601610975565b6109d681610771565b840191505092915050565b600060208201905081810360008301526109fb81846109a8565b905092915050565b600073ffffffffffffffffffffffffffffffffffffffff82169050919050565b6000610a2e82610a03565b9050919050565b610a3e81610a23565b82525050565b6000602082019050610a596000830184610a35565b92915050565b610a6881610a23565b8114610a7357600080fd5b50565b600081359050610a8581610a5f565b92915050565b600060208284031215610aa157610aa061075d565b5b6000610aaf84828501610a76565b91505092915050565b60008115159050919050565b610acd81610ab8565b82525050565b6000602082019050610ae86000830184610ac4565b92915050565b610af7816108f6565b82525050565b6000602082019050610b126000830184610aee565b92915050565b60008060408385031215610b2f57610b2e61075d565b5b600083013567ffffffffffffffff811115610b4d57610b4c610762565b5b610b598582860161087f565b9250506020610b6a85828601610a76565b9150509250929050565b7f4e6f74207573696e672061207265676973746572656420666f7265737465722060008201527f6164647265737300000000000000000000000000000000000000000000000000602082015250565b6000610bd0602783610964565b9150610bdb82610b74565b604082019050919050565b60006020820190508181036000830152610bff81610bc3565b9050919050565b600081905092915050565b6000610c1c82610959565b610c268185610c06565b9350610c36818560208601610975565b80840191505092915050565b6000610c4e8284610c11565b915081905092915050565b7f4e487b7100000000000000000000000000000000000000000000000000000000600052602260045260246000fd5b60006002820490506001821680610ca057607f821691505b602082108103610cb357610cb2610c59565b5b5091905056fea2646970667358221220dafe0f7bd15380861a1bd6bc6c4b99c808ece5157d9eed8dc8ec13af583aa76664736f6c634300080d0033",
  "immutableReferences": {},
  "source": "// SPDX-License-Identifier: MIT\r\n\r\npragma solidity >=0.4.22 <0.9.0;\r\n\r\ncontract ActorsRegistration {\r\n\r\n    string[] public companies;\r\n    mapping(string => address) public cutterCompanies;\r\n    mapping(address => bool) public foresters;\r\n\r\n    constructor() {\r\n        foresters[msg.sender] = true;\r\n    }\r\n\r\n    modifier onlyForester {        \r\n        require(foresters[msg.sender], \"Not using a registered forester address\");\r\n        _;\r\n    }\r\n\r\n    function registerForester(address foresterAddress) onlyForester external {\r\n        foresters[foresterAddress] = true;\r\n    }\r\n\r\n    function registerCutter(string memory cif, address cutterAddress) onlyForester external {\r\n        cutterCompanies[cif] = cutterAddress;\r\n        companies.push(cif);\r\n    }\r\n\r\n    function deleteForester(address foresterAddress) onlyForester external {\r\n        foresters[foresterAddress] = false;\r\n    }\r\n\r\n    function deleteCutter(string memory cif) onlyForester external {\r\n        cutterCompanies[cif] = address(0);\r\n    }\r\n\r\n    function getCompaniesCount() external view returns (uint) {\r\n        return companies.length;\r\n    }\r\n}",
  "sourcePath": "D:\\Faculta\\Year_4\\LICENTA\\tree-chain-react\\contracts\\ActorsRegistration.sol",
  "compiler": {
    "name": "solc",
    "version": "0.8.13+commit.abaa5c0e.Emscripten.clang"
  },
  "schemaVersion": "3.4.4",
  "updatedAt": "2022-04-16T16:13:00.779Z",
  "networkType": "ethereum",
  "devdoc": {
    "kind": "dev",
    "methods": {},
    "version": 1
  },
  "userdoc": {
    "kind": "user",
    "methods": {},
    "version": 1
  }
}