{
  "contractName": "ActorsRegistration",
  "abi": [
    {
      "inputs": [],
      "stateMutability": "nonpayable",
      "type": "constructor"
    },
    {
      "inputs": [
        {
          "internalType": "uint256",
          "name": "",
          "type": "uint256"
        }
      ],
      "name": "companies",
      "outputs": [
        {
          "internalType": "bytes8",
          "name": "",
          "type": "bytes8"
        }
      ],
      "stateMutability": "view",
      "type": "function",
      "constant": true
    },
    {
      "inputs": [
        {
          "internalType": "bytes8",
          "name": "",
          "type": "bytes8"
        }
      ],
      "name": "cutterCompanies",
      "outputs": [
        {
          "internalType": "address",
          "name": "",
          "type": "address"
        }
      ],
      "stateMutability": "view",
      "type": "function",
      "constant": true
    },
    {
      "inputs": [
        {
          "internalType": "address",
          "name": "",
          "type": "address"
        }
      ],
      "name": "cutters",
      "outputs": [
        {
          "internalType": "bool",
          "name": "",
          "type": "bool"
        }
      ],
      "stateMutability": "view",
      "type": "function",
      "constant": true
    },
    {
      "inputs": [
        {
          "internalType": "address",
          "name": "",
          "type": "address"
        }
      ],
      "name": "foresters",
      "outputs": [
        {
          "internalType": "bool",
          "name": "",
          "type": "bool"
        }
      ],
      "stateMutability": "view",
      "type": "function",
      "constant": true
    },
    {
      "inputs": [
        {
          "internalType": "address",
          "name": "foresterAddress",
          "type": "address"
        }
      ],
      "name": "registerForester",
      "outputs": [],
      "stateMutability": "nonpayable",
      "type": "function"
    },
    {
      "inputs": [
        {
          "internalType": "bytes8",
          "name": "cif",
          "type": "bytes8"
        },
        {
          "internalType": "address",
          "name": "cutterAddress",
          "type": "address"
        }
      ],
      "name": "registerCutter",
      "outputs": [],
      "stateMutability": "nonpayable",
      "type": "function"
    },
    {
      "inputs": [
        {
          "internalType": "address",
          "name": "foresterAddress",
          "type": "address"
        }
      ],
      "name": "deleteForester",
      "outputs": [],
      "stateMutability": "nonpayable",
      "type": "function"
    },
    {
      "inputs": [
        {
          "internalType": "bytes8",
          "name": "cif",
          "type": "bytes8"
        }
      ],
      "name": "deleteCutter",
      "outputs": [],
      "stateMutability": "nonpayable",
      "type": "function"
    },
    {
      "inputs": [],
      "name": "getCompaniesCount",
      "outputs": [
        {
          "internalType": "uint256",
          "name": "",
          "type": "uint256"
        }
      ],
      "stateMutability": "view",
      "type": "function",
      "constant": true
    }
  ],
  "bytecode": "0x608060405234801561001057600080fd5b506001600360003373ffffffffffffffffffffffffffffffffffffffff1673ffffffffffffffffffffffffffffffffffffffff16815260200190815260200160002060006101000a81548160ff021916908315150217905550610cb1806100786000396000f3fe608060405234801561001057600080fd5b50600436106100935760003560e01c8063465f6b2b11610066578063465f6b2b1461014457806386a781aa14610174578063a5b4653c14610190578063b5c3c4ac146101ac578063ccb0a334146101c857610093565b8063253556c8146100985780632813d19d146100c85780632b9d6738146100f857806330d231ee14610128575b600080fd5b6100b260048036038101906100ad9190610937565b6101e6565b6040516100bf91906109a5565b60405180910390f35b6100e260048036038101906100dd91906109f6565b610219565b6040516100ef9190610a32565b60405180910390f35b610112600480360381019061010d9190610a79565b610250565b60405161011f9190610ac1565b60405180910390f35b610142600480360381019061013d9190610a79565b610270565b005b61015e60048036038101906101599190610a79565b610357565b60405161016b9190610ac1565b60405180910390f35b61018e60048036038101906101899190610a79565b610377565b005b6101aa60048036038101906101a59190610adc565b61045e565b005b6101c660048036038101906101c19190610937565b6106f5565b005b6101d06108ce565b6040516101dd9190610b2b565b60405180910390f35b60016020528060005260406000206000915054906101000a900473ffffffffffffffffffffffffffffffffffffffff1681565b6000818154811061022957600080fd5b9060005260206000209060049182820401919006600802915054906101000a900460c01b81565b60026020528060005260406000206000915054906101000a900460ff1681565b600360003373ffffffffffffffffffffffffffffffffffffffff1673ffffffffffffffffffffffffffffffffffffffff16815260200190815260200160002060009054906101000a900460ff166102fc576040517f08c379a00000000000000000000000000000000000000000000000000000000081526004016102f390610bc9565b60405180910390fd5b6001600360008373ffffffffffffffffffffffffffffffffffffffff1673ffffffffffffffffffffffffffffffffffffffff16815260200190815260200160002060006101000a81548160ff02191690831515021790555050565b60036020528060005260406000206000915054906101000a900460ff1681565b600360003373ffffffffffffffffffffffffffffffffffffffff1673ffffffffffffffffffffffffffffffffffffffff16815260200190815260200160002060009054906101000a900460ff16610403576040517f08c379a00000000000000000000000000000000000000000000000000000000081526004016103fa90610bc9565b60405180910390fd5b6000600360008373ffffffffffffffffffffffffffffffffffffffff1673ffffffffffffffffffffffffffffffffffffffff16815260200190815260200160002060006101000a81548160ff02191690831515021790555050565b600360003373ffffffffffffffffffffffffffffffffffffffff1673ffffffffffffffffffffffffffffffffffffffff16815260200190815260200160002060009054906101000a900460ff166104ea576040517f08c379a00000000000000000000000000000000000000000000000000000000081526004016104e190610bc9565b60405180910390fd5b600073ffffffffffffffffffffffffffffffffffffffff16600160008477ffffffffffffffffffffffffffffffffffffffffffffffff191677ffffffffffffffffffffffffffffffffffffffffffffffff1916815260200190815260200160002060009054906101000a900473ffffffffffffffffffffffffffffffffffffffff1673ffffffffffffffffffffffffffffffffffffffff16146105c2576040517f08c379a00000000000000000000000000000000000000000000000000000000081526004016105b990610c5b565b60405180910390fd5b80600160008477ffffffffffffffffffffffffffffffffffffffffffffffff191677ffffffffffffffffffffffffffffffffffffffffffffffff1916815260200190815260200160002060006101000a81548173ffffffffffffffffffffffffffffffffffffffff021916908373ffffffffffffffffffffffffffffffffffffffff1602179055506001600260008373ffffffffffffffffffffffffffffffffffffffff1673ffffffffffffffffffffffffffffffffffffffff16815260200190815260200160002060006101000a81548160ff02191690831515021790555060008290806001815401808255809150506001900390600052602060002090600491828204019190066008029091909190916101000a81548167ffffffffffffffff021916908360c01c02179055505050565b600360003373ffffffffffffffffffffffffffffffffffffffff1673ffffffffffffffffffffffffffffffffffffffff16815260200190815260200160002060009054906101000a900460ff16610781576040517f08c379a000000000000000000000000000000000000000000000000000000000815260040161077890610bc9565b60405180910390fd5b600060026000600160008577ffffffffffffffffffffffffffffffffffffffffffffffff191677ffffffffffffffffffffffffffffffffffffffffffffffff1916815260200190815260200160002060009054906101000a900473ffffffffffffffffffffffffffffffffffffffff1673ffffffffffffffffffffffffffffffffffffffff1673ffffffffffffffffffffffffffffffffffffffff16815260200190815260200160002060006101000a81548160ff0219169083151502179055506000600160008377ffffffffffffffffffffffffffffffffffffffffffffffff191677ffffffffffffffffffffffffffffffffffffffffffffffff1916815260200190815260200160002060006101000a81548173ffffffffffffffffffffffffffffffffffffffff021916908373ffffffffffffffffffffffffffffffffffffffff16021790555050565b60008080549050905090565b600080fd5b60007fffffffffffffffff00000000000000000000000000000000000000000000000082169050919050565b610914816108df565b811461091f57600080fd5b50565b6000813590506109318161090b565b92915050565b60006020828403121561094d5761094c6108da565b5b600061095b84828501610922565b91505092915050565b600073ffffffffffffffffffffffffffffffffffffffff82169050919050565b600061098f82610964565b9050919050565b61099f81610984565b82525050565b60006020820190506109ba6000830184610996565b92915050565b6000819050919050565b6109d3816109c0565b81146109de57600080fd5b50565b6000813590506109f0816109ca565b92915050565b600060208284031215610a0c57610a0b6108da565b5b6000610a1a848285016109e1565b91505092915050565b610a2c816108df565b82525050565b6000602082019050610a476000830184610a23565b92915050565b610a5681610984565b8114610a6157600080fd5b50565b600081359050610a7381610a4d565b92915050565b600060208284031215610a8f57610a8e6108da565b5b6000610a9d84828501610a64565b91505092915050565b60008115159050919050565b610abb81610aa6565b82525050565b6000602082019050610ad66000830184610ab2565b92915050565b60008060408385031215610af357610af26108da565b5b6000610b0185828601610922565b9250506020610b1285828601610a64565b9150509250929050565b610b25816109c0565b82525050565b6000602082019050610b406000830184610b1c565b92915050565b600082825260208201905092915050565b7f4e6f74207573696e672061207265676973746572656420666f7265737465722060008201527f6164647265737300000000000000000000000000000000000000000000000000602082015250565b6000610bb3602783610b46565b9150610bbe82610b57565b604082019050919050565b60006020820190508181036000830152610be281610ba6565b9050919050565b7f43757474657220636f6d70616e7920616c72656164792072656769737465726560008201527f6400000000000000000000000000000000000000000000000000000000000000602082015250565b6000610c45602183610b46565b9150610c5082610be9565b604082019050919050565b60006020820190508181036000830152610c7481610c38565b905091905056fea2646970667358221220597d6276b630a8afd2df4a9ed6f2404a9ade9d1b1d8dac166aab4cc2d4160d6a64736f6c634300080d0033",
  "immutableReferences": {},
  "source": "// SPDX-License-Identifier: MIT\r\n\r\npragma solidity >=0.4.22 <0.9.0;\r\n\r\ncontract ActorsRegistration {\r\n\r\n    bytes8[] public companies;\r\n    mapping(bytes8 => address) public cutterCompanies;\r\n    mapping(address => bool) public cutters;\r\n    mapping(address => bool) public foresters;\r\n\r\n    constructor() {\r\n        foresters[msg.sender] = true;\r\n    }\r\n\r\n    modifier onlyForester {        \r\n        require(foresters[msg.sender], \"Not using a registered forester address\");\r\n        _;\r\n    }\r\n\r\n    function registerForester(address foresterAddress) onlyForester external {\r\n        foresters[foresterAddress] = true;\r\n    }\r\n\r\n    function registerCutter(bytes8 cif, address cutterAddress) onlyForester external {\r\n        require(cutterCompanies[cif] == address(0), \"Cutter company already registered\");\r\n        cutterCompanies[cif] = cutterAddress;\r\n        cutters[cutterAddress] = true;\r\n        companies.push(cif);\r\n    }\r\n\r\n    function deleteForester(address foresterAddress) onlyForester external {\r\n        foresters[foresterAddress] = false;\r\n    }\r\n\r\n    function deleteCutter(bytes8 cif) onlyForester external {\r\n        cutters[cutterCompanies[cif]] = false;\r\n        cutterCompanies[cif] = address(0);\r\n    }\r\n\r\n    function getCompaniesCount() external view returns (uint) {\r\n        return companies.length;\r\n    }\r\n}",
  "sourcePath": "D:\\Faculta\\Year_4\\LICENTA\\tree-chain-react\\contracts\\ActorsRegistration.sol",
  "compiler": {
    "name": "solc",
    "version": "0.8.13+commit.abaa5c0e.Emscripten.clang"
  },
  "schemaVersion": "3.4.4",
  "updatedAt": "2022-04-21T20:00:19.270Z",
  "networkType": "ethereum",
  "devdoc": {
    "kind": "dev",
    "methods": {},
    "version": 1
  },
  "userdoc": {
    "kind": "user",
    "methods": {},
    "version": 1
  }
}