{
  "contractName": "Transportation",
  "abi": [
    {
      "inputs": [
        {
          "internalType": "address",
          "name": "actorsContractAddress",
          "type": "address"
        },
        {
          "internalType": "address",
          "name": "cuttingContractAddress",
          "type": "address"
        }
      ],
      "stateMutability": "nonpayable",
      "type": "constructor"
    },
    {
      "inputs": [
        {
          "internalType": "uint256",
          "name": "",
          "type": "uint256"
        }
      ],
      "name": "contractHashes",
      "outputs": [
        {
          "internalType": "bytes32",
          "name": "",
          "type": "bytes32"
        }
      ],
      "stateMutability": "view",
      "type": "function",
      "constant": true
    },
    {
      "inputs": [
        {
          "internalType": "bytes32",
          "name": "",
          "type": "bytes32"
        }
      ],
      "name": "contractInfo",
      "outputs": [
        {
          "internalType": "uint8",
          "name": "nrTrees",
          "type": "uint8"
        },
        {
          "internalType": "bytes9",
          "name": "car",
          "type": "bytes9"
        },
        {
          "internalType": "bytes32",
          "name": "cutHash",
          "type": "bytes32"
        },
        {
          "internalType": "uint256",
          "name": "departureTime",
          "type": "uint256"
        }
      ],
      "stateMutability": "view",
      "type": "function",
      "constant": true
    },
    {
      "inputs": [
        {
          "internalType": "bytes32",
          "name": "",
          "type": "bytes32"
        },
        {
          "internalType": "uint256",
          "name": "",
          "type": "uint256"
        }
      ],
      "name": "cuttingContractTransportHashes",
      "outputs": [
        {
          "internalType": "bytes32",
          "name": "",
          "type": "bytes32"
        }
      ],
      "stateMutability": "view",
      "type": "function",
      "constant": true
    },
    {
      "inputs": [
        {
          "internalType": "bytes32",
          "name": "",
          "type": "bytes32"
        }
      ],
      "name": "treesTransported",
      "outputs": [
        {
          "internalType": "uint16",
          "name": "",
          "type": "uint16"
        }
      ],
      "stateMutability": "view",
      "type": "function",
      "constant": true
    },
    {
      "inputs": [
        {
          "internalType": "uint8",
          "name": "nrTrees",
          "type": "uint8"
        },
        {
          "internalType": "bytes9",
          "name": "car",
          "type": "bytes9"
        },
        {
          "internalType": "bytes32",
          "name": "cutHash",
          "type": "bytes32"
        }
      ],
      "name": "createTransportContract",
      "outputs": [
        {
          "internalType": "bytes32",
          "name": "",
          "type": "bytes32"
        }
      ],
      "stateMutability": "nonpayable",
      "type": "function"
    },
    {
      "inputs": [],
      "name": "getAllContractsCount",
      "outputs": [
        {
          "internalType": "uint256",
          "name": "",
          "type": "uint256"
        }
      ],
      "stateMutability": "view",
      "type": "function",
      "constant": true
    },
    {
      "inputs": [
        {
          "internalType": "bytes32",
          "name": "cutHash",
          "type": "bytes32"
        }
      ],
      "name": "getCuttingContractTransportHashesCount",
      "outputs": [
        {
          "internalType": "uint256",
          "name": "",
          "type": "uint256"
        }
      ],
      "stateMutability": "view",
      "type": "function",
      "constant": true
    }
  ],
  "bytecode": "0x608060405234801561001057600080fd5b50604051610e2f380380610e2f8339818101604052810190610032919061011e565b81600460006101000a81548173ffffffffffffffffffffffffffffffffffffffff021916908373ffffffffffffffffffffffffffffffffffffffff16021790555080600560006101000a81548173ffffffffffffffffffffffffffffffffffffffff021916908373ffffffffffffffffffffffffffffffffffffffff160217905550505061015e565b600080fd5b600073ffffffffffffffffffffffffffffffffffffffff82169050919050565b60006100eb826100c0565b9050919050565b6100fb816100e0565b811461010657600080fd5b50565b600081519050610118816100f2565b92915050565b60008060408385031215610135576101346100bb565b5b600061014385828601610109565b925050602061015485828601610109565b9150509250929050565b610cc28061016d6000396000f3fe608060405234801561001057600080fd5b506004361061007d5760003560e01c8063b1de64b71161005b578063b1de64b714610100578063da91ef1814610130578063eca993dc14610163578063f16a78f7146101935761007d565b806315327ebc14610082578063456a7f54146100b257806366254b84146100e2575b600080fd5b61009c60048036038101906100979190610661565b6101c3565b6040516100a991906106ab565b60405180910390f35b6100cc60048036038101906100c79190610757565b6101e4565b6040516100d991906107b9565b60405180910390f35b6100ea61055b565b6040516100f791906107ed565b60405180910390f35b61011a60048036038101906101159190610661565b610567565b60405161012791906107ed565b60405180910390f35b61014a60048036038101906101459190610661565b610587565b60405161015a9493929190610826565b60405180910390f35b61017d60048036038101906101789190610897565b6105d1565b60405161018a91906107b9565b60405180910390f35b6101ad60048036038101906101a891906108d7565b610602565b6040516101ba91906107b9565b60405180910390f35b60036020528060005260406000206000915054906101000a900461ffff1681565b6000600460009054906101000a900473ffffffffffffffffffffffffffffffffffffffff1673ffffffffffffffffffffffffffffffffffffffff1663465f6b2b336040518263ffffffff1660e01b81526004016102419190610945565b602060405180830381865afa15801561025e573d6000803e3d6000fd5b505050506040513d601f19601f820116820180604052508101906102829190610998565b6102c1576040517f08c379a00000000000000000000000000000000000000000000000000000000081526004016102b890610a48565b60405180910390fd5b60008460ff166003600085815260200190815260200160002060009054906101000a900461ffff166102f39190610a97565b9050600560009054906101000a900473ffffffffffffffffffffffffffffffffffffffff1673ffffffffffffffffffffffffffffffffffffffff1663196a64e6846040518263ffffffff1660e01b815260040161035091906107b9565b602060405180830381865afa15801561036d573d6000803e3d6000fd5b505050506040513d601f19601f820116820180604052508101906103919190610afb565b61ffff168161ffff1611156103db576040517f08c379a00000000000000000000000000000000000000000000000000000000081526004016103d290610bc0565b60405180910390fd5b806003600085815260200190815260200160002060006101000a81548161ffff021916908361ffff160217905550600060405180608001604052808760ff1681526020018676ffffffffffffffffffffffffffffffffffffffffffffff1916815260200185815260200142815250905060008160405160200161045e9190610c71565b604051602081830303815290604052805190602001209050816001600083815260200190815260200160002060008201518160000160006101000a81548160ff021916908360ff16021790555060208201518160000160016101000a81548168ffffffffffffffffff021916908360b81c021790555060408201518160010155606082015181600201559050506002600086815260200190815260200160002081908060018154018082558091505060019003906000526020600020016000909190919091505560008190806001815401808255809150506001900390600052602060002001600090919091909150558093505050509392505050565b60008080549050905090565b600060026000838152602001908152602001600020805490509050919050565b60016020528060005260406000206000915090508060000160009054906101000a900460ff16908060000160019054906101000a900460b81b908060010154908060020154905084565b600260205281600052604060002081815481106105ed57600080fd5b90600052602060002001600091509150505481565b6000818154811061061257600080fd5b906000526020600020016000915090505481565b600080fd5b6000819050919050565b61063e8161062b565b811461064957600080fd5b50565b60008135905061065b81610635565b92915050565b60006020828403121561067757610676610626565b5b60006106858482850161064c565b91505092915050565b600061ffff82169050919050565b6106a58161068e565b82525050565b60006020820190506106c0600083018461069c565b92915050565b600060ff82169050919050565b6106dc816106c6565b81146106e757600080fd5b50565b6000813590506106f9816106d3565b92915050565b60007fffffffffffffffffff000000000000000000000000000000000000000000000082169050919050565b610734816106ff565b811461073f57600080fd5b50565b6000813590506107518161072b565b92915050565b6000806000606084860312156107705761076f610626565b5b600061077e868287016106ea565b935050602061078f86828701610742565b92505060406107a08682870161064c565b9150509250925092565b6107b38161062b565b82525050565b60006020820190506107ce60008301846107aa565b92915050565b6000819050919050565b6107e7816107d4565b82525050565b600060208201905061080260008301846107de565b92915050565b610811816106c6565b82525050565b610820816106ff565b82525050565b600060808201905061083b6000830187610808565b6108486020830186610817565b61085560408301856107aa565b61086260608301846107de565b95945050505050565b610874816107d4565b811461087f57600080fd5b50565b6000813590506108918161086b565b92915050565b600080604083850312156108ae576108ad610626565b5b60006108bc8582860161064c565b92505060206108cd85828601610882565b9150509250929050565b6000602082840312156108ed576108ec610626565b5b60006108fb84828501610882565b91505092915050565b600073ffffffffffffffffffffffffffffffffffffffff82169050919050565b600061092f82610904565b9050919050565b61093f81610924565b82525050565b600060208201905061095a6000830184610936565b92915050565b60008115159050919050565b61097581610960565b811461098057600080fd5b50565b6000815190506109928161096c565b92915050565b6000602082840312156109ae576109ad610626565b5b60006109bc84828501610983565b91505092915050565b600082825260208201905092915050565b7f4e6f74207573696e672061207265676973746572656420666f7265737465722060008201527f6164647265737300000000000000000000000000000000000000000000000000602082015250565b6000610a326027836109c5565b9150610a3d826109d6565b604082019050919050565b60006020820190508181036000830152610a6181610a25565b9050919050565b7f4e487b7100000000000000000000000000000000000000000000000000000000600052601160045260246000fd5b6000610aa28261068e565b9150610aad8361068e565b92508261ffff03821115610ac457610ac3610a68565b5b828201905092915050565b610ad88161068e565b8114610ae357600080fd5b50565b600081519050610af581610acf565b92915050565b600060208284031215610b1157610b10610626565b5b6000610b1f84828501610ae6565b91505092915050565b7f43616e6e6f74207472616e73706f7274206d6f7265207472656573207468616e60008201527f207768617420686173206265656e2063757420666f722063757474696e67206360208201527f6f6e747261637400000000000000000000000000000000000000000000000000604082015250565b6000610baa6047836109c5565b9150610bb582610b28565b606082019050919050565b60006020820190508181036000830152610bd981610b9d565b9050919050565b610be9816106c6565b82525050565b610bf8816106ff565b82525050565b610c078161062b565b82525050565b610c16816107d4565b82525050565b608082016000820151610c326000850182610be0565b506020820151610c456020850182610bef565b506040820151610c586040850182610bfe565b506060820151610c6b6060850182610c0d565b50505050565b6000608082019050610c866000830184610c1c565b9291505056fea264697066735822122060c41c8df80a5e3e080dd1e40064e495c5665b667dd8000abd612d5ff45b95f864736f6c634300080d0033",
  "immutableReferences": {},
  "source": "// SPDX-License-Identifier: MIT\r\n\r\npragma solidity >=0.4.22 <0.9.0;\r\n\r\nimport \"./ActorsRegistration.sol\";\r\nimport \"./TreeCutting.sol\";\r\n\r\ncontract Transportation {\r\n\r\n    struct Transport {\r\n        uint8 nrTrees;\r\n        bytes9 car;\r\n        bytes32 cutHash;\r\n        uint departureTime; \r\n    }\r\n\r\n    bytes32[] public contractHashes;\r\n    mapping(bytes32 => Transport) public contractInfo;\r\n    mapping(bytes32 => bytes32[]) public cuttingContractTransportHashes; // cutting contract => transport contracts\r\n    mapping(bytes32 => uint16) public treesTransported; // cutting contract => trees transported\r\n\r\n    ActorsRegistration private actors;\r\n    TreeCutting private cutting;\r\n\r\n    constructor(address actorsContractAddress, address cuttingContractAddress) {\r\n        actors = ActorsRegistration(actorsContractAddress);\r\n        cutting = TreeCutting(cuttingContractAddress);\r\n    }\r\n    \r\n    function createTransportContract(uint8 nrTrees, bytes9 car, bytes32 cutHash) external returns (bytes32) {\r\n        require(actors.foresters(msg.sender), \"Not using a registered forester address\");\r\n\r\n        uint16 newNrTreesTransported = treesTransported[cutHash] + nrTrees;\r\n        require(newNrTreesTransported <= cutting.getContractNrCutTrees(cutHash), \r\n                \"Cannot transport more trees than what has been cut for cutting contract\");\r\n        treesTransported[cutHash] = newNrTreesTransported;\r\n\r\n        Transport memory transport = Transport(nrTrees, car, cutHash, block.timestamp);\r\n        bytes32 transportId = keccak256(abi.encode(transport));\r\n        contractInfo[transportId] = transport;\r\n        cuttingContractTransportHashes[cutHash].push(transportId);\r\n        contractHashes.push(transportId);\r\n        return transportId;\r\n    }\r\n\r\n    function getAllContractsCount() external view returns (uint) {\r\n        return contractHashes.length;\r\n    }\r\n\r\n    function getCuttingContractTransportHashesCount(bytes32 cutHash) external view returns (uint) {\r\n        return cuttingContractTransportHashes[cutHash].length;\r\n    }\r\n}",
  "sourcePath": "D:\\Faculta\\Year_4\\LICENTA\\tree-chain-react\\contracts\\Transportation.sol",
  "compiler": {
    "name": "solc",
    "version": "0.8.13+commit.abaa5c0e.Emscripten.clang"
  },
  "schemaVersion": "3.4.4",
  "updatedAt": "2022-04-21T20:00:19.322Z",
  "networkType": "ethereum",
  "devdoc": {
    "kind": "dev",
    "methods": {},
    "version": 1
  },
  "userdoc": {
    "kind": "user",
    "methods": {},
    "version": 1
  }
}