{
  "contractName": "Transportation",
  "abi": [
    {
      "inputs": [
        {
          "internalType": "address",
          "name": "actorsContractAddress",
          "type": "address"
        },
        {
          "internalType": "address",
          "name": "cuttingContractAddress",
          "type": "address"
        }
      ],
      "stateMutability": "nonpayable",
      "type": "constructor"
    },
    {
      "anonymous": false,
      "inputs": [
        {
          "indexed": false,
          "internalType": "bytes32",
          "name": "transportHash",
          "type": "bytes32"
        }
      ],
      "name": "TransportCreated",
      "type": "event"
    },
    {
      "inputs": [
        {
          "internalType": "bytes7",
          "name": "",
          "type": "bytes7"
        },
        {
          "internalType": "uint256",
          "name": "",
          "type": "uint256"
        }
      ],
      "name": "carTransports",
      "outputs": [
        {
          "internalType": "bytes32",
          "name": "",
          "type": "bytes32"
        }
      ],
      "stateMutability": "view",
      "type": "function",
      "constant": true
    },
    {
      "inputs": [
        {
          "internalType": "uint256",
          "name": "",
          "type": "uint256"
        }
      ],
      "name": "contractHashes",
      "outputs": [
        {
          "internalType": "bytes32",
          "name": "",
          "type": "bytes32"
        }
      ],
      "stateMutability": "view",
      "type": "function",
      "constant": true
    },
    {
      "inputs": [
        {
          "internalType": "bytes32",
          "name": "",
          "type": "bytes32"
        }
      ],
      "name": "contractInfo",
      "outputs": [
        {
          "internalType": "uint8",
          "name": "nrTrees",
          "type": "uint8"
        },
        {
          "internalType": "bytes7",
          "name": "car",
          "type": "bytes7"
        },
        {
          "internalType": "bytes32",
          "name": "cutHash",
          "type": "bytes32"
        },
        {
          "internalType": "uint256",
          "name": "departureTime",
          "type": "uint256"
        }
      ],
      "stateMutability": "view",
      "type": "function",
      "constant": true
    },
    {
      "inputs": [
        {
          "internalType": "bytes32",
          "name": "",
          "type": "bytes32"
        },
        {
          "internalType": "uint256",
          "name": "",
          "type": "uint256"
        }
      ],
      "name": "cuttingContractTransportHashes",
      "outputs": [
        {
          "internalType": "bytes32",
          "name": "",
          "type": "bytes32"
        }
      ],
      "stateMutability": "view",
      "type": "function",
      "constant": true
    },
    {
      "inputs": [
        {
          "internalType": "bytes32",
          "name": "",
          "type": "bytes32"
        }
      ],
      "name": "treesTransported",
      "outputs": [
        {
          "internalType": "uint16",
          "name": "",
          "type": "uint16"
        }
      ],
      "stateMutability": "view",
      "type": "function",
      "constant": true
    },
    {
      "inputs": [
        {
          "internalType": "uint8",
          "name": "nrTrees",
          "type": "uint8"
        },
        {
          "internalType": "bytes7",
          "name": "car",
          "type": "bytes7"
        },
        {
          "internalType": "bytes32",
          "name": "cutHash",
          "type": "bytes32"
        }
      ],
      "name": "createTransportContract",
      "outputs": [],
      "stateMutability": "nonpayable",
      "type": "function"
    },
    {
      "inputs": [],
      "name": "getAllContractsCount",
      "outputs": [
        {
          "internalType": "uint256",
          "name": "",
          "type": "uint256"
        }
      ],
      "stateMutability": "view",
      "type": "function",
      "constant": true
    },
    {
      "inputs": [
        {
          "internalType": "bytes32",
          "name": "cutHash",
          "type": "bytes32"
        }
      ],
      "name": "getCuttingContractTransportHashesCount",
      "outputs": [
        {
          "internalType": "uint256",
          "name": "",
          "type": "uint256"
        }
      ],
      "stateMutability": "view",
      "type": "function",
      "constant": true
    },
    {
      "inputs": [
        {
          "internalType": "bytes7",
          "name": "car",
          "type": "bytes7"
        }
      ],
      "name": "getCarTransportHashesCount",
      "outputs": [
        {
          "internalType": "uint256",
          "name": "",
          "type": "uint256"
        }
      ],
      "stateMutability": "view",
      "type": "function",
      "constant": true
    }
  ],
  "bytecode": "0x608060405234801562000010575f80fd5b5060405162000fa938038062000fa9833981810160405281019062000036919062000123565b8160055f6101000a81548173ffffffffffffffffffffffffffffffffffffffff021916908373ffffffffffffffffffffffffffffffffffffffff1602179055508060065f6101000a81548173ffffffffffffffffffffffffffffffffffffffff021916908373ffffffffffffffffffffffffffffffffffffffff160217905550505062000168565b5f80fd5b5f73ffffffffffffffffffffffffffffffffffffffff82169050919050565b5f620000ed82620000c2565b9050919050565b620000ff81620000e1565b81146200010a575f80fd5b50565b5f815190506200011d81620000f4565b92915050565b5f80604083850312156200013c576200013b620000be565b5b5f6200014b858286016200010d565b92505060206200015e858286016200010d565b9150509250929050565b610e3380620001765f395ff3fe608060405234801561000f575f80fd5b5060043610610091575f3560e01c8063b1de64b711610064578063b1de64b71461012f578063d00ce6ce1461015f578063da91ef181461018f578063eca993dc146101c2578063f16a78f7146101f257610091565b806315327ebc1461009557806366254b84146100c557806375f55ed5146100e3578063904753bd14610113575b5f80fd5b6100af60048036038101906100aa91906107a3565b610222565b6040516100bc91906107ea565b60405180910390f35b6100cd610240565b6040516100da919061081b565b60405180910390f35b6100fd60048036038101906100f891906108b3565b61024b565b60405161010a9190610900565b60405180910390f35b61012d6004803603810190610128919061094f565b610276565b005b610149600480360381019061014491906107a3565b61066c565b604051610156919061081b565b60405180910390f35b6101796004803603810190610174919061099f565b610689565b604051610186919061081b565b60405180910390f35b6101a960048036038101906101a491906107a3565b6106de565b6040516101b994939291906109e8565b60405180910390f35b6101dc60048036038101906101d79190610a2b565b610722565b6040516101e99190610900565b60405180910390f35b61020c60048036038101906102079190610a69565b61074d565b6040516102199190610900565b60405180910390f35b6003602052805f5260405f205f915054906101000a900461ffff1681565b5f8080549050905090565b6004602052815f5260405f208181548110610264575f80fd5b905f5260205f20015f91509150505481565b60055f9054906101000a900473ffffffffffffffffffffffffffffffffffffffff1673ffffffffffffffffffffffffffffffffffffffff1663465f6b2b336040518263ffffffff1660e01b81526004016102d09190610ad3565b602060405180830381865afa1580156102eb573d5f803e3d5ffd5b505050506040513d601f19601f8201168201806040525081019061030f9190610b21565b61034e576040517f08c379a000000000000000000000000000000000000000000000000000000000815260040161034590610bcc565b60405180910390fd5b5f8360ff1660035f8481526020019081526020015f205f9054906101000a900461ffff1661037c9190610c17565b905060065f9054906101000a900473ffffffffffffffffffffffffffffffffffffffff1673ffffffffffffffffffffffffffffffffffffffff1663196a64e6836040518263ffffffff1660e01b81526004016103d89190610900565b602060405180830381865afa1580156103f3573d5f803e3d5ffd5b505050506040513d601f19601f820116820180604052508101906104179190610c76565b61ffff168161ffff161115610461576040517f08c379a000000000000000000000000000000000000000000000000000000000815260040161045890610d37565b60405180910390fd5b8060035f8481526020019081526020015f205f6101000a81548161ffff021916908361ffff1602179055505f60405180608001604052808660ff1681526020018578ffffffffffffffffffffffffffffffffffffffffffffffffff191681526020018481526020014281525090505f816040516020016104e19190610de4565b6040516020818303038152906040528051906020012090508160015f8381526020019081526020015f205f820151815f015f6101000a81548160ff021916908360ff1602179055506020820151815f0160016101000a81548166ffffffffffffff021916908360c81c0217905550604082015181600101556060820151816002015590505060025f8581526020019081526020015f2081908060018154018082558091505060019003905f5260205f20015f909190919091505560045f8678ffffffffffffffffffffffffffffffffffffffffffffffffff191678ffffffffffffffffffffffffffffffffffffffffffffffffff191681526020019081526020015f2081908060018154018082558091505060019003905f5260205f20015f90919091909150555f81908060018154018082558091505060019003905f5260205f20015f90919091909150557f40857057010c1d0b314ca5346f846ad9a58bd8ada2203a031916d1e242d847128160405161065c9190610900565b60405180910390a1505050505050565b5f60025f8381526020019081526020015f20805490509050919050565b5f60045f8378ffffffffffffffffffffffffffffffffffffffffffffffffff191678ffffffffffffffffffffffffffffffffffffffffffffffffff191681526020019081526020015f20805490509050919050565b6001602052805f5260405f205f91509050805f015f9054906101000a900460ff1690805f0160019054906101000a900460c81b908060010154908060020154905084565b6002602052815f5260405f20818154811061073b575f80fd5b905f5260205f20015f91509150505481565b5f818154811061075b575f80fd5b905f5260205f20015f915090505481565b5f80fd5b5f819050919050565b61078281610770565b811461078c575f80fd5b50565b5f8135905061079d81610779565b92915050565b5f602082840312156107b8576107b761076c565b5b5f6107c58482850161078f565b91505092915050565b5f61ffff82169050919050565b6107e4816107ce565b82525050565b5f6020820190506107fd5f8301846107db565b92915050565b5f819050919050565b61081581610803565b82525050565b5f60208201905061082e5f83018461080c565b92915050565b5f7fffffffffffffff0000000000000000000000000000000000000000000000000082169050919050565b61086881610834565b8114610872575f80fd5b50565b5f813590506108838161085f565b92915050565b61089281610803565b811461089c575f80fd5b50565b5f813590506108ad81610889565b92915050565b5f80604083850312156108c9576108c861076c565b5b5f6108d685828601610875565b92505060206108e78582860161089f565b9150509250929050565b6108fa81610770565b82525050565b5f6020820190506109135f8301846108f1565b92915050565b5f60ff82169050919050565b61092e81610919565b8114610938575f80fd5b50565b5f8135905061094981610925565b92915050565b5f805f606084860312156109665761096561076c565b5b5f6109738682870161093b565b935050602061098486828701610875565b92505060406109958682870161078f565b9150509250925092565b5f602082840312156109b4576109b361076c565b5b5f6109c184828501610875565b91505092915050565b6109d381610919565b82525050565b6109e281610834565b82525050565b5f6080820190506109fb5f8301876109ca565b610a0860208301866109d9565b610a1560408301856108f1565b610a22606083018461080c565b95945050505050565b5f8060408385031215610a4157610a4061076c565b5b5f610a4e8582860161078f565b9250506020610a5f8582860161089f565b9150509250929050565b5f60208284031215610a7e57610a7d61076c565b5b5f610a8b8482850161089f565b91505092915050565b5f73ffffffffffffffffffffffffffffffffffffffff82169050919050565b5f610abd82610a94565b9050919050565b610acd81610ab3565b82525050565b5f602082019050610ae65f830184610ac4565b92915050565b5f8115159050919050565b610b0081610aec565b8114610b0a575f80fd5b50565b5f81519050610b1b81610af7565b92915050565b5f60208284031215610b3657610b3561076c565b5b5f610b4384828501610b0d565b91505092915050565b5f82825260208201905092915050565b7f4e6f74207573696e672061207265676973746572656420666f726573746572205f8201527f6164647265737300000000000000000000000000000000000000000000000000602082015250565b5f610bb6602783610b4c565b9150610bc182610b5c565b604082019050919050565b5f6020820190508181035f830152610be381610baa565b9050919050565b7f4e487b71000000000000000000000000000000000000000000000000000000005f52601160045260245ffd5b5f610c21826107ce565b9150610c2c836107ce565b9250828201905061ffff811115610c4657610c45610bea565b5b92915050565b610c55816107ce565b8114610c5f575f80fd5b50565b5f81519050610c7081610c4c565b92915050565b5f60208284031215610c8b57610c8a61076c565b5b5f610c9884828501610c62565b91505092915050565b7f43616e6e6f74207472616e73706f7274206d6f7265207472656573207468616e5f8201527f20776861742068617665206265656e2063757420666f722063757474696e672060208201527f636f6e7472616374000000000000000000000000000000000000000000000000604082015250565b5f610d21604883610b4c565b9150610d2c82610ca1565b606082019050919050565b5f6020820190508181035f830152610d4e81610d15565b9050919050565b610d5e81610919565b82525050565b610d6d81610834565b82525050565b610d7c81610770565b82525050565b610d8b81610803565b82525050565b608082015f820151610da55f850182610d55565b506020820151610db86020850182610d64565b506040820151610dcb6040850182610d73565b506060820151610dde6060850182610d82565b50505050565b5f608082019050610df75f830184610d91565b9291505056fea264697066735822122006c007421d8200e179d1ac5baf7b2506bfa9fb0407de2f8287ee9704ed22467b64736f6c63430008150033",
  "immutableReferences": {},
  "source": "// SPDX-License-Identifier: MIT\r\n\r\npragma solidity >=0.4.22 <0.9.0;\r\n\r\nimport \"./ActorsRegistration.sol\";\r\nimport \"./TreeCutting.sol\";\r\n\r\ncontract Transportation {\r\n\r\n    struct Transport {\r\n        uint8 nrTrees;\r\n        bytes7 car;\r\n        bytes32 cutHash;\r\n        uint departureTime; \r\n    }\r\n\r\n    bytes32[] public contractHashes;\r\n    mapping(bytes32 => Transport) public contractInfo;\r\n    mapping(bytes32 => bytes32[]) public cuttingContractTransportHashes; // cutting contract => transport contracts\r\n    mapping(bytes32 => uint16) public treesTransported; // cutting contract => trees transported\r\n    mapping(bytes7 => bytes32[]) public carTransports;\r\n\r\n    ActorsRegistration private actors;\r\n    TreeCutting private cutting;\r\n\r\n    event TransportCreated(bytes32 transportHash);\r\n\r\n    constructor(address actorsContractAddress, address cuttingContractAddress) {\r\n        actors = ActorsRegistration(actorsContractAddress);\r\n        cutting = TreeCutting(cuttingContractAddress);\r\n    }\r\n    \r\n    function createTransportContract(uint8 nrTrees, bytes7 car, bytes32 cutHash) external {\r\n        require(actors.foresters(msg.sender), \"Not using a registered forester address\");\r\n\r\n        uint16 newNrTreesTransported = treesTransported[cutHash] + nrTrees;\r\n        require(newNrTreesTransported <= cutting.getContractNrCutTrees(cutHash), \r\n                \"Cannot transport more trees than what have been cut for cutting contract\");\r\n        treesTransported[cutHash] = newNrTreesTransported;\r\n\r\n        Transport memory transport = Transport(nrTrees, car, cutHash, block.timestamp);\r\n        bytes32 transportHash = keccak256(abi.encode(transport));\r\n        contractInfo[transportHash] = transport;\r\n        cuttingContractTransportHashes[cutHash].push(transportHash);\r\n        carTransports[car].push(transportHash);\r\n        contractHashes.push(transportHash);\r\n        emit TransportCreated(transportHash);\r\n    }\r\n\r\n    function getAllContractsCount() external view returns (uint) {\r\n        return contractHashes.length;\r\n    }\r\n\r\n    function getCuttingContractTransportHashesCount(bytes32 cutHash) external view returns (uint) {\r\n        return cuttingContractTransportHashes[cutHash].length;\r\n    }\r\n\r\n    function getCarTransportHashesCount(bytes7 car) external view returns (uint) {\r\n        return carTransports[car].length;\r\n    }\r\n}",
  "sourcePath": "D:\\Code\\tree-buddy\\contracts\\Transportation.sol",
  "compiler": {
    "name": "solc",
    "version": "0.8.21+commit.d9974bed.Emscripten.clang"
  },
  "schemaVersion": "3.4.4",
  "updatedAt": "2023-08-31T11:48:14.094Z",
  "networkType": "ethereum",
  "devdoc": {
    "kind": "dev",
    "methods": {},
    "version": 1
  },
  "userdoc": {
    "kind": "user",
    "methods": {},
    "version": 1
  }
}