{
  "contractName": "Transportation",
  "abi": [
    {
      "inputs": [
        {
          "internalType": "address",
          "name": "actorsContractAddress",
          "type": "address"
        },
        {
          "internalType": "address",
          "name": "cuttingContractAddress",
          "type": "address"
        }
      ],
      "stateMutability": "nonpayable",
      "type": "constructor"
    },
    {
      "anonymous": false,
      "inputs": [
        {
          "indexed": false,
          "internalType": "bytes32",
          "name": "transportHash",
          "type": "bytes32"
        }
      ],
      "name": "TransportCreated",
      "type": "event"
    },
    {
      "inputs": [
        {
          "internalType": "bytes7",
          "name": "",
          "type": "bytes7"
        },
        {
          "internalType": "uint256",
          "name": "",
          "type": "uint256"
        }
      ],
      "name": "carTransports",
      "outputs": [
        {
          "internalType": "bytes32",
          "name": "",
          "type": "bytes32"
        }
      ],
      "stateMutability": "view",
      "type": "function",
      "constant": true
    },
    {
      "inputs": [
        {
          "internalType": "uint256",
          "name": "",
          "type": "uint256"
        }
      ],
      "name": "contractHashes",
      "outputs": [
        {
          "internalType": "bytes32",
          "name": "",
          "type": "bytes32"
        }
      ],
      "stateMutability": "view",
      "type": "function",
      "constant": true
    },
    {
      "inputs": [
        {
          "internalType": "bytes32",
          "name": "",
          "type": "bytes32"
        }
      ],
      "name": "contractInfo",
      "outputs": [
        {
          "internalType": "uint8",
          "name": "nrTrees",
          "type": "uint8"
        },
        {
          "internalType": "bytes7",
          "name": "car",
          "type": "bytes7"
        },
        {
          "internalType": "bytes32",
          "name": "cutHash",
          "type": "bytes32"
        },
        {
          "internalType": "uint256",
          "name": "departureTime",
          "type": "uint256"
        }
      ],
      "stateMutability": "view",
      "type": "function",
      "constant": true
    },
    {
      "inputs": [
        {
          "internalType": "bytes32",
          "name": "",
          "type": "bytes32"
        },
        {
          "internalType": "uint256",
          "name": "",
          "type": "uint256"
        }
      ],
      "name": "cuttingContractTransportHashes",
      "outputs": [
        {
          "internalType": "bytes32",
          "name": "",
          "type": "bytes32"
        }
      ],
      "stateMutability": "view",
      "type": "function",
      "constant": true
    },
    {
      "inputs": [
        {
          "internalType": "bytes32",
          "name": "",
          "type": "bytes32"
        }
      ],
      "name": "treesTransported",
      "outputs": [
        {
          "internalType": "uint16",
          "name": "",
          "type": "uint16"
        }
      ],
      "stateMutability": "view",
      "type": "function",
      "constant": true
    },
    {
      "inputs": [
        {
          "internalType": "uint8",
          "name": "nrTrees",
          "type": "uint8"
        },
        {
          "internalType": "bytes7",
          "name": "car",
          "type": "bytes7"
        },
        {
          "internalType": "bytes32",
          "name": "cutHash",
          "type": "bytes32"
        }
      ],
      "name": "createTransportContract",
      "outputs": [],
      "stateMutability": "nonpayable",
      "type": "function"
    },
    {
      "inputs": [],
      "name": "getAllContractsCount",
      "outputs": [
        {
          "internalType": "uint256",
          "name": "",
          "type": "uint256"
        }
      ],
      "stateMutability": "view",
      "type": "function",
      "constant": true
    },
    {
      "inputs": [
        {
          "internalType": "bytes32",
          "name": "cutHash",
          "type": "bytes32"
        }
      ],
      "name": "getCuttingContractTransportHashesCount",
      "outputs": [
        {
          "internalType": "uint256",
          "name": "",
          "type": "uint256"
        }
      ],
      "stateMutability": "view",
      "type": "function",
      "constant": true
    },
    {
      "inputs": [
        {
          "internalType": "bytes7",
          "name": "car",
          "type": "bytes7"
        }
      ],
      "name": "getCarTransportHashesCount",
      "outputs": [
        {
          "internalType": "uint256",
          "name": "",
          "type": "uint256"
        }
      ],
      "stateMutability": "view",
      "type": "function",
      "constant": true
    }
  ],
  "bytecode": "0x60806040523480156200001157600080fd5b506040516200103e3803806200103e83398181016040528101906200003791906200012b565b81600560006101000a81548173ffffffffffffffffffffffffffffffffffffffff021916908373ffffffffffffffffffffffffffffffffffffffff16021790555080600660006101000a81548173ffffffffffffffffffffffffffffffffffffffff021916908373ffffffffffffffffffffffffffffffffffffffff160217905550505062000172565b600080fd5b600073ffffffffffffffffffffffffffffffffffffffff82169050919050565b6000620000f382620000c6565b9050919050565b6200010581620000e6565b81146200011157600080fd5b50565b6000815190506200012581620000fa565b92915050565b60008060408385031215620001455762000144620000c1565b5b6000620001558582860162000114565b9250506020620001688582860162000114565b9150509250929050565b610ebc80620001826000396000f3fe608060405234801561001057600080fd5b50600436106100935760003560e01c8063b1de64b711610066578063b1de64b714610132578063d00ce6ce14610162578063da91ef1814610192578063eca993dc146101c5578063f16a78f7146101f557610093565b806315327ebc1461009857806366254b84146100c857806375f55ed5146100e6578063904753bd14610116575b600080fd5b6100b260048036038101906100ad91906107ee565b610225565b6040516100bf9190610838565b60405180910390f35b6100d0610246565b6040516100dd919061086c565b60405180910390f35b61010060048036038101906100fb919061090b565b610252565b60405161010d919061095a565b60405180910390f35b610130600480360381019061012b91906109ae565b610283565b005b61014c600480360381019061014791906107ee565b61069c565b604051610159919061086c565b60405180910390f35b61017c60048036038101906101779190610a01565b6106bc565b604051610189919061086c565b60405180910390f35b6101ac60048036038101906101a791906107ee565b610714565b6040516101bc9493929190610a4c565b60405180910390f35b6101df60048036038101906101da9190610a91565b61075e565b6040516101ec919061095a565b60405180910390f35b61020f600480360381019061020a9190610ad1565b61078f565b60405161021c919061095a565b60405180910390f35b60036020528060005260406000206000915054906101000a900461ffff1681565b60008080549050905090565b6004602052816000526040600020818154811061026e57600080fd5b90600052602060002001600091509150505481565b600560009054906101000a900473ffffffffffffffffffffffffffffffffffffffff1673ffffffffffffffffffffffffffffffffffffffff1663465f6b2b336040518263ffffffff1660e01b81526004016102de9190610b3f565b602060405180830381865afa1580156102fb573d6000803e3d6000fd5b505050506040513d601f19601f8201168201806040525081019061031f9190610b92565b61035e576040517f08c379a000000000000000000000000000000000000000000000000000000000815260040161035590610c42565b60405180910390fd5b60008360ff166003600084815260200190815260200160002060009054906101000a900461ffff166103909190610c91565b9050600660009054906101000a900473ffffffffffffffffffffffffffffffffffffffff1673ffffffffffffffffffffffffffffffffffffffff1663196a64e6836040518263ffffffff1660e01b81526004016103ed919061095a565b602060405180830381865afa15801561040a573d6000803e3d6000fd5b505050506040513d601f19601f8201168201806040525081019061042e9190610cf5565b61ffff168161ffff161115610478576040517f08c379a000000000000000000000000000000000000000000000000000000000815260040161046f90610dba565b60405180910390fd5b806003600084815260200190815260200160002060006101000a81548161ffff021916908361ffff160217905550600060405180608001604052808660ff1681526020018578ffffffffffffffffffffffffffffffffffffffffffffffffff191681526020018481526020014281525090506000816040516020016104fd9190610e6b565b604051602081830303815290604052805190602001209050816001600083815260200190815260200160002060008201518160000160006101000a81548160ff021916908360ff16021790555060208201518160000160016101000a81548166ffffffffffffff021916908360c81c0217905550604082015181600101556060820151816002015590505060026000858152602001908152602001600020819080600181540180825580915050600190039060005260206000200160009091909190915055600460008678ffffffffffffffffffffffffffffffffffffffffffffffffff191678ffffffffffffffffffffffffffffffffffffffffffffffffff1916815260200190815260200160002081908060018154018082558091505060019003906000526020600020016000909190919091505560008190806001815401808255809150506001900390600052602060002001600090919091909150557f40857057010c1d0b314ca5346f846ad9a58bd8ada2203a031916d1e242d847128160405161068c919061095a565b60405180910390a1505050505050565b600060026000838152602001908152602001600020805490509050919050565b6000600460008378ffffffffffffffffffffffffffffffffffffffffffffffffff191678ffffffffffffffffffffffffffffffffffffffffffffffffff19168152602001908152602001600020805490509050919050565b60016020528060005260406000206000915090508060000160009054906101000a900460ff16908060000160019054906101000a900460c81b908060010154908060020154905084565b6002602052816000526040600020818154811061077a57600080fd5b90600052602060002001600091509150505481565b6000818154811061079f57600080fd5b906000526020600020016000915090505481565b600080fd5b6000819050919050565b6107cb816107b8565b81146107d657600080fd5b50565b6000813590506107e8816107c2565b92915050565b600060208284031215610804576108036107b3565b5b6000610812848285016107d9565b91505092915050565b600061ffff82169050919050565b6108328161081b565b82525050565b600060208201905061084d6000830184610829565b92915050565b6000819050919050565b61086681610853565b82525050565b6000602082019050610881600083018461085d565b92915050565b60007fffffffffffffff0000000000000000000000000000000000000000000000000082169050919050565b6108bc81610887565b81146108c757600080fd5b50565b6000813590506108d9816108b3565b92915050565b6108e881610853565b81146108f357600080fd5b50565b600081359050610905816108df565b92915050565b60008060408385031215610922576109216107b3565b5b6000610930858286016108ca565b9250506020610941858286016108f6565b9150509250929050565b610954816107b8565b82525050565b600060208201905061096f600083018461094b565b92915050565b600060ff82169050919050565b61098b81610975565b811461099657600080fd5b50565b6000813590506109a881610982565b92915050565b6000806000606084860312156109c7576109c66107b3565b5b60006109d586828701610999565b93505060206109e6868287016108ca565b92505060406109f7868287016107d9565b9150509250925092565b600060208284031215610a1757610a166107b3565b5b6000610a25848285016108ca565b91505092915050565b610a3781610975565b82525050565b610a4681610887565b82525050565b6000608082019050610a616000830187610a2e565b610a6e6020830186610a3d565b610a7b604083018561094b565b610a88606083018461085d565b95945050505050565b60008060408385031215610aa857610aa76107b3565b5b6000610ab6858286016107d9565b9250506020610ac7858286016108f6565b9150509250929050565b600060208284031215610ae757610ae66107b3565b5b6000610af5848285016108f6565b91505092915050565b600073ffffffffffffffffffffffffffffffffffffffff82169050919050565b6000610b2982610afe565b9050919050565b610b3981610b1e565b82525050565b6000602082019050610b546000830184610b30565b92915050565b60008115159050919050565b610b6f81610b5a565b8114610b7a57600080fd5b50565b600081519050610b8c81610b66565b92915050565b600060208284031215610ba857610ba76107b3565b5b6000610bb684828501610b7d565b91505092915050565b600082825260208201905092915050565b7f4e6f74207573696e672061207265676973746572656420666f7265737465722060008201527f6164647265737300000000000000000000000000000000000000000000000000602082015250565b6000610c2c602783610bbf565b9150610c3782610bd0565b604082019050919050565b60006020820190508181036000830152610c5b81610c1f565b9050919050565b7f4e487b7100000000000000000000000000000000000000000000000000000000600052601160045260246000fd5b6000610c9c8261081b565b9150610ca78361081b565b92508261ffff03821115610cbe57610cbd610c62565b5b828201905092915050565b610cd28161081b565b8114610cdd57600080fd5b50565b600081519050610cef81610cc9565b92915050565b600060208284031215610d0b57610d0a6107b3565b5b6000610d1984828501610ce0565b91505092915050565b7f43616e6e6f74207472616e73706f7274206d6f7265207472656573207468616e60008201527f20776861742068617665206265656e2063757420666f722063757474696e672060208201527f636f6e7472616374000000000000000000000000000000000000000000000000604082015250565b6000610da4604883610bbf565b9150610daf82610d22565b606082019050919050565b60006020820190508181036000830152610dd381610d97565b9050919050565b610de381610975565b82525050565b610df281610887565b82525050565b610e01816107b8565b82525050565b610e1081610853565b82525050565b608082016000820151610e2c6000850182610dda565b506020820151610e3f6020850182610de9565b506040820151610e526040850182610df8565b506060820151610e656060850182610e07565b50505050565b6000608082019050610e806000830184610e16565b9291505056fea2646970667358221220efd79ce0a745a3a2ae3f39a1f384b52fbbde43e07d670da76316cf989941a22b64736f6c634300080e0033",
  "immutableReferences": {},
  "source": "// SPDX-License-Identifier: MIT\r\n\r\npragma solidity >=0.4.22 <0.9.0;\r\n\r\nimport \"./ActorsRegistration.sol\";\r\nimport \"./TreeCutting.sol\";\r\n\r\ncontract Transportation {\r\n\r\n    struct Transport {\r\n        uint8 nrTrees;\r\n        bytes7 car;\r\n        bytes32 cutHash;\r\n        uint departureTime; \r\n    }\r\n\r\n    bytes32[] public contractHashes;\r\n    mapping(bytes32 => Transport) public contractInfo;\r\n    mapping(bytes32 => bytes32[]) public cuttingContractTransportHashes; // cutting contract => transport contracts\r\n    mapping(bytes32 => uint16) public treesTransported; // cutting contract => trees transported\r\n    mapping(bytes7 => bytes32[]) public carTransports;\r\n\r\n    ActorsRegistration private actors;\r\n    TreeCutting private cutting;\r\n\r\n    event TransportCreated(bytes32 transportHash);\r\n\r\n    constructor(address actorsContractAddress, address cuttingContractAddress) {\r\n        actors = ActorsRegistration(actorsContractAddress);\r\n        cutting = TreeCutting(cuttingContractAddress);\r\n    }\r\n    \r\n    function createTransportContract(uint8 nrTrees, bytes7 car, bytes32 cutHash) external {\r\n        require(actors.foresters(msg.sender), \"Not using a registered forester address\");\r\n\r\n        uint16 newNrTreesTransported = treesTransported[cutHash] + nrTrees;\r\n        require(newNrTreesTransported <= cutting.getContractNrCutTrees(cutHash), \r\n                \"Cannot transport more trees than what have been cut for cutting contract\");\r\n        treesTransported[cutHash] = newNrTreesTransported;\r\n\r\n        Transport memory transport = Transport(nrTrees, car, cutHash, block.timestamp);\r\n        bytes32 transportHash = keccak256(abi.encode(transport));\r\n        contractInfo[transportHash] = transport;\r\n        cuttingContractTransportHashes[cutHash].push(transportHash);\r\n        carTransports[car].push(transportHash);\r\n        contractHashes.push(transportHash);\r\n        emit TransportCreated(transportHash);\r\n    }\r\n\r\n    function getAllContractsCount() external view returns (uint) {\r\n        return contractHashes.length;\r\n    }\r\n\r\n    function getCuttingContractTransportHashesCount(bytes32 cutHash) external view returns (uint) {\r\n        return cuttingContractTransportHashes[cutHash].length;\r\n    }\r\n\r\n    function getCarTransportHashesCount(bytes7 car) external view returns (uint) {\r\n        return carTransports[car].length;\r\n    }\r\n}",
  "sourcePath": "D:\\Faculta\\Year_4\\LICENTA\\tree-chain-react\\contracts\\Transportation.sol",
  "compiler": {
    "name": "solc",
    "version": "0.8.14+commit.80d49f37.Emscripten.clang"
  },
  "schemaVersion": "3.4.4",
  "updatedAt": "2022-06-09T10:00:25.829Z",
  "networkType": "ethereum",
  "devdoc": {
    "kind": "dev",
    "methods": {},
    "version": 1
  },
  "userdoc": {
    "kind": "user",
    "methods": {},
    "version": 1
  }
}