{
  "contractName": "Transportation",
  "abi": [
    {
      "inputs": [
        {
          "internalType": "address",
          "name": "actorsContractAddress",
          "type": "address"
        },
        {
          "internalType": "address",
          "name": "cuttingContractAddress",
          "type": "address"
        }
      ],
      "stateMutability": "nonpayable",
      "type": "constructor"
    },
    {
      "inputs": [
        {
          "internalType": "string",
          "name": "",
          "type": "string"
        },
        {
          "internalType": "uint256",
          "name": "",
          "type": "uint256"
        }
      ],
      "name": "carTransports",
      "outputs": [
        {
          "internalType": "bytes32",
          "name": "",
          "type": "bytes32"
        }
      ],
      "stateMutability": "view",
      "type": "function",
      "constant": true
    },
    {
      "inputs": [
        {
          "internalType": "string",
          "name": "",
          "type": "string"
        },
        {
          "internalType": "uint256",
          "name": "",
          "type": "uint256"
        }
      ],
      "name": "companyTransports",
      "outputs": [
        {
          "internalType": "bytes32",
          "name": "",
          "type": "bytes32"
        }
      ],
      "stateMutability": "view",
      "type": "function",
      "constant": true
    },
    {
      "inputs": [
        {
          "internalType": "uint256",
          "name": "",
          "type": "uint256"
        }
      ],
      "name": "contracts",
      "outputs": [
        {
          "internalType": "bytes32",
          "name": "",
          "type": "bytes32"
        }
      ],
      "stateMutability": "view",
      "type": "function",
      "constant": true
    },
    {
      "inputs": [
        {
          "internalType": "bytes32",
          "name": "",
          "type": "bytes32"
        },
        {
          "internalType": "uint256",
          "name": "",
          "type": "uint256"
        }
      ],
      "name": "cuttingContractTransports",
      "outputs": [
        {
          "internalType": "bytes32",
          "name": "",
          "type": "bytes32"
        }
      ],
      "stateMutability": "view",
      "type": "function",
      "constant": true
    },
    {
      "inputs": [
        {
          "internalType": "bytes32",
          "name": "",
          "type": "bytes32"
        }
      ],
      "name": "transportInfo",
      "outputs": [
        {
          "internalType": "uint8",
          "name": "nrTrees",
          "type": "uint8"
        },
        {
          "internalType": "string",
          "name": "car",
          "type": "string"
        },
        {
          "internalType": "string",
          "name": "cif",
          "type": "string"
        },
        {
          "internalType": "uint256",
          "name": "departureTime",
          "type": "uint256"
        },
        {
          "internalType": "string",
          "name": "startLocation",
          "type": "string"
        },
        {
          "internalType": "string",
          "name": "destination",
          "type": "string"
        }
      ],
      "stateMutability": "view",
      "type": "function",
      "constant": true
    },
    {
      "inputs": [
        {
          "internalType": "bytes32",
          "name": "",
          "type": "bytes32"
        }
      ],
      "name": "treesTransported",
      "outputs": [
        {
          "internalType": "uint16",
          "name": "",
          "type": "uint16"
        }
      ],
      "stateMutability": "view",
      "type": "function",
      "constant": true
    },
    {
      "inputs": [
        {
          "internalType": "uint8",
          "name": "nrTrees",
          "type": "uint8"
        },
        {
          "internalType": "string",
          "name": "car",
          "type": "string"
        },
        {
          "internalType": "string",
          "name": "cif",
          "type": "string"
        },
        {
          "internalType": "string",
          "name": "destination",
          "type": "string"
        },
        {
          "internalType": "bytes32",
          "name": "cuttingId",
          "type": "bytes32"
        }
      ],
      "name": "createTransportContract",
      "outputs": [
        {
          "internalType": "bytes32",
          "name": "",
          "type": "bytes32"
        }
      ],
      "stateMutability": "nonpayable",
      "type": "function"
    },
    {
      "inputs": [],
      "name": "getContractsCount",
      "outputs": [
        {
          "internalType": "uint256",
          "name": "",
          "type": "uint256"
        }
      ],
      "stateMutability": "view",
      "type": "function",
      "constant": true
    }
  ],
  "bytecode": "0x60806040523480156200001157600080fd5b5060405162001ae438038062001ae483398181016040528101906200003791906200012b565b81600660006101000a81548173ffffffffffffffffffffffffffffffffffffffff021916908373ffffffffffffffffffffffffffffffffffffffff16021790555080600760006101000a81548173ffffffffffffffffffffffffffffffffffffffff021916908373ffffffffffffffffffffffffffffffffffffffff160217905550505062000172565b600080fd5b600073ffffffffffffffffffffffffffffffffffffffff82169050919050565b6000620000f382620000c6565b9050919050565b6200010581620000e6565b81146200011157600080fd5b50565b6000815190506200012581620000fa565b92915050565b60008060408385031215620001455762000144620000c1565b5b6000620001558582860162000114565b9250506020620001688582860162000114565b9150509250929050565b61196280620001826000396000f3fe608060405234801561001057600080fd5b50600436106100885760003560e01c80639683584f1161005b5780639683584f1461014d57806398652e401461016b578063be491b5b1461019b578063c8212906146101d057610088565b806315327ebc1461008d578063474da79a146100bd57806352a26cf8146100ed578063540954291461011d575b600080fd5b6100a760048036038101906100a29190610d3a565b610200565b6040516100b49190610d84565b60405180910390f35b6100d760048036038101906100d29190610dd5565b610221565b6040516100e49190610e11565b60405180910390f35b61010760048036038101906101029190610f72565b610245565b6040516101149190610e11565b60405180910390f35b61013760048036038101906101329190611007565b61028c565b6040516101449190610e11565b60405180910390f35b610155610960565b60405161016291906110e5565b60405180910390f35b61018560048036038101906101809190610f72565b61096c565b6040516101929190610e11565b60405180910390f35b6101b560048036038101906101b09190610d3a565b6109b3565b6040516101c796959493929190611197565b60405180910390f35b6101ea60048036038101906101e59190611214565b610c1c565b6040516101f79190610e11565b60405180910390f35b60026020528060005260406000206000915054906101000a900461ffff1681565b6000818154811061023157600080fd5b906000526020600020016000915090505481565b600482805160208101820180518482526020830160208501208183528095505050505050818154811061027757600080fd5b90600052602060002001600091509150505481565b6000600660009054906101000a900473ffffffffffffffffffffffffffffffffffffffff1673ffffffffffffffffffffffffffffffffffffffff1663465f6b2b336040518263ffffffff1660e01b81526004016102e99190611295565b602060405180830381865afa158015610306573d6000803e3d6000fd5b505050506040513d601f19601f8201168201806040525081019061032a91906112e8565b610369576040517f08c379a000000000000000000000000000000000000000000000000000000000815260040161036090611387565b60405180910390fd5b600760009054906101000a900473ffffffffffffffffffffffffffffffffffffffff1673ffffffffffffffffffffffffffffffffffffffff166320fdf62c836040518263ffffffff1660e01b81526004016103c49190610e11565b602060405180830381865afa1580156103e1573d6000803e3d6000fd5b505050506040513d601f19601f8201168201806040525081019061040591906112e8565b610444576040517f08c379a000000000000000000000000000000000000000000000000000000000815260040161043b90611419565b60405180910390fd5b600073ffffffffffffffffffffffffffffffffffffffff16600660009054906101000a900473ffffffffffffffffffffffffffffffffffffffff1673ffffffffffffffffffffffffffffffffffffffff16632914263f866040518263ffffffff1660e01b81526004016104b79190611439565b602060405180830381865afa1580156104d4573d6000803e3d6000fd5b505050506040513d601f19601f820116820180604052508101906104f89190611487565b73ffffffffffffffffffffffffffffffffffffffff160361054e576040517f08c379a000000000000000000000000000000000000000000000000000000000815260040161054590611500565b60405180910390fd5b600760009054906101000a900473ffffffffffffffffffffffffffffffffffffffff1673ffffffffffffffffffffffffffffffffffffffff1663196a64e6836040518263ffffffff1660e01b81526004016105a99190610e11565b602060405180830381865afa1580156105c6573d6000803e3d6000fd5b505050506040513d601f19601f820116820180604052508101906105ea919061154c565b61ffff168660ff166002600085815260200190815260200160002060009054906101000a900461ffff1661061e91906115a8565b61ffff161115610663576040517f08c379a000000000000000000000000000000000000000000000000000000000815260040161065a90611678565b60405180910390fd5b8560ff166002600084815260200190815260200160002060008282829054906101000a900461ffff1661069691906115a8565b92506101000a81548161ffff021916908361ffff16021790555060006040518060c001604052808860ff168152602001878152602001868152602001428152602001600760009054906101000a900473ffffffffffffffffffffffffffffffffffffffff1673ffffffffffffffffffffffffffffffffffffffff16632d3aca4f866040518263ffffffff1660e01b81526004016107339190610e11565b600060405180830381865afa158015610750573d6000803e3d6000fd5b505050506040513d6000823e3d601f19601f820116820180604052508101906107799190611708565b81526020018581525090506000816040516020016107979190611857565b604051602081830303815290604052805190602001209050816001600083815260200190815260200160002060008201518160000160006101000a81548160ff021916908360ff1602179055506020820151816001019080519060200190610800929190610c4d565b50604082015181600201908051906020019061081d929190610c4d565b50606082015181600301556080820151816004019080519060200190610844929190610c4d565b5060a0820151816005019080519060200190610861929190610c4d565b50905050600360008581526020019081526020016000208190806001815401808255809150506001900390600052602060002001600090919091909150556004876040516108af91906118b5565b90815260200160405180910390208190806001815401808255809150506001900390600052602060002001600090919091909150556005866040516108f491906118b5565b90815260200160405180910390208190806001815401808255809150506001900390600052602060002001600090919091909150556000819080600181540180825580915050600190039060005260206000200160009091909190915055809250505095945050505050565b60008080549050905090565b600582805160208101820180518482526020830160208501208183528095505050505050818154811061099e57600080fd5b90600052602060002001600091509150505481565b60016020528060005260406000206000915090508060000160009054906101000a900460ff16908060010180546109e9906118fb565b80601f0160208091040260200160405190810160405280929190818152602001828054610a15906118fb565b8015610a625780601f10610a3757610100808354040283529160200191610a62565b820191906000526020600020905b815481529060010190602001808311610a4557829003601f168201915b505050505090806002018054610a77906118fb565b80601f0160208091040260200160405190810160405280929190818152602001828054610aa3906118fb565b8015610af05780601f10610ac557610100808354040283529160200191610af0565b820191906000526020600020905b815481529060010190602001808311610ad357829003601f168201915b505050505090806003015490806004018054610b0b906118fb565b80601f0160208091040260200160405190810160405280929190818152602001828054610b37906118fb565b8015610b845780601f10610b5957610100808354040283529160200191610b84565b820191906000526020600020905b815481529060010190602001808311610b6757829003601f168201915b505050505090806005018054610b99906118fb565b80601f0160208091040260200160405190810160405280929190818152602001828054610bc5906118fb565b8015610c125780601f10610be757610100808354040283529160200191610c12565b820191906000526020600020905b815481529060010190602001808311610bf557829003601f168201915b5050505050905086565b60036020528160005260406000208181548110610c3857600080fd5b90600052602060002001600091509150505481565b828054610c59906118fb565b90600052602060002090601f016020900481019282610c7b5760008555610cc2565b82601f10610c9457805160ff1916838001178555610cc2565b82800160010185558215610cc2579182015b82811115610cc1578251825591602001919060010190610ca6565b5b509050610ccf9190610cd3565b5090565b5b80821115610cec576000816000905550600101610cd4565b5090565b6000604051905090565b600080fd5b600080fd5b6000819050919050565b610d1781610d04565b8114610d2257600080fd5b50565b600081359050610d3481610d0e565b92915050565b600060208284031215610d5057610d4f610cfa565b5b6000610d5e84828501610d25565b91505092915050565b600061ffff82169050919050565b610d7e81610d67565b82525050565b6000602082019050610d996000830184610d75565b92915050565b6000819050919050565b610db281610d9f565b8114610dbd57600080fd5b50565b600081359050610dcf81610da9565b92915050565b600060208284031215610deb57610dea610cfa565b5b6000610df984828501610dc0565b91505092915050565b610e0b81610d04565b82525050565b6000602082019050610e266000830184610e02565b92915050565b600080fd5b600080fd5b6000601f19601f8301169050919050565b7f4e487b7100000000000000000000000000000000000000000000000000000000600052604160045260246000fd5b610e7f82610e36565b810181811067ffffffffffffffff82111715610e9e57610e9d610e47565b5b80604052505050565b6000610eb1610cf0565b9050610ebd8282610e76565b919050565b600067ffffffffffffffff821115610edd57610edc610e47565b5b610ee682610e36565b9050602081019050919050565b82818337600083830152505050565b6000610f15610f1084610ec2565b610ea7565b905082815260208101848484011115610f3157610f30610e31565b5b610f3c848285610ef3565b509392505050565b600082601f830112610f5957610f58610e2c565b5b8135610f69848260208601610f02565b91505092915050565b60008060408385031215610f8957610f88610cfa565b5b600083013567ffffffffffffffff811115610fa757610fa6610cff565b5b610fb385828601610f44565b9250506020610fc485828601610dc0565b9150509250929050565b600060ff82169050919050565b610fe481610fce565b8114610fef57600080fd5b50565b60008135905061100181610fdb565b92915050565b600080600080600060a0868803121561102357611022610cfa565b5b600061103188828901610ff2565b955050602086013567ffffffffffffffff81111561105257611051610cff565b5b61105e88828901610f44565b945050604086013567ffffffffffffffff81111561107f5761107e610cff565b5b61108b88828901610f44565b935050606086013567ffffffffffffffff8111156110ac576110ab610cff565b5b6110b888828901610f44565b92505060806110c988828901610d25565b9150509295509295909350565b6110df81610d9f565b82525050565b60006020820190506110fa60008301846110d6565b92915050565b61110981610fce565b82525050565b600081519050919050565b600082825260208201905092915050565b60005b8381101561114957808201518184015260208101905061112e565b83811115611158576000848401525b50505050565b60006111698261110f565b611173818561111a565b935061118381856020860161112b565b61118c81610e36565b840191505092915050565b600060c0820190506111ac6000830189611100565b81810360208301526111be818861115e565b905081810360408301526111d2818761115e565b90506111e160608301866110d6565b81810360808301526111f3818561115e565b905081810360a0830152611207818461115e565b9050979650505050505050565b6000806040838503121561122b5761122a610cfa565b5b600061123985828601610d25565b925050602061124a85828601610dc0565b9150509250929050565b600073ffffffffffffffffffffffffffffffffffffffff82169050919050565b600061127f82611254565b9050919050565b61128f81611274565b82525050565b60006020820190506112aa6000830184611286565b92915050565b60008115159050919050565b6112c5816112b0565b81146112d057600080fd5b50565b6000815190506112e2816112bc565b92915050565b6000602082840312156112fe576112fd610cfa565b5b600061130c848285016112d3565b91505092915050565b7f4e6f74207573696e672061207265676973746572656420666f7265737465722060008201527f6164647265737300000000000000000000000000000000000000000000000000602082015250565b600061137160278361111a565b915061137c82611315565b604082019050919050565b600060208201905081810360008301526113a081611364565b9050919050565b7f416e20616c726561647920637265617465642063757474696e6720636f6e747260008201527f616374206e6565647320746f2062652075736564000000000000000000000000602082015250565b600061140360348361111a565b915061140e826113a7565b604082019050919050565b60006020820190508181036000830152611432816113f6565b9050919050565b60006020820190508181036000830152611453818461115e565b905092915050565b61146481611274565b811461146f57600080fd5b50565b6000815190506114818161145b565b92915050565b60006020828403121561149d5761149c610cfa565b5b60006114ab84828501611472565b91505092915050565b7f4e6f74207573696e672061207265676973746572656420637574746572000000600082015250565b60006114ea601d8361111a565b91506114f5826114b4565b602082019050919050565b60006020820190508181036000830152611519816114dd565b9050919050565b61152981610d67565b811461153457600080fd5b50565b60008151905061154681611520565b92915050565b60006020828403121561156257611561610cfa565b5b600061157084828501611537565b91505092915050565b7f4e487b7100000000000000000000000000000000000000000000000000000000600052601160045260246000fd5b60006115b382610d67565b91506115be83610d67565b92508261ffff038211156115d5576115d4611579565b5b828201905092915050565b7f43616e6e6f74207472616e73706f7274206d6f7265207472656573207468616e60008201527f207768617420686173206265656e2063757420666f722063757474696e67206360208201527f6f6e747261637400000000000000000000000000000000000000000000000000604082015250565b600061166260478361111a565b915061166d826115e0565b606082019050919050565b6000602082019050818103600083015261169181611655565b9050919050565b60006116ab6116a684610ec2565b610ea7565b9050828152602081018484840111156116c7576116c6610e31565b5b6116d284828561112b565b509392505050565b600082601f8301126116ef576116ee610e2c565b5b81516116ff848260208601611698565b91505092915050565b60006020828403121561171e5761171d610cfa565b5b600082015167ffffffffffffffff81111561173c5761173b610cff565b5b611748848285016116da565b91505092915050565b61175a81610fce565b82525050565b600082825260208201905092915050565b600061177c8261110f565b6117868185611760565b935061179681856020860161112b565b61179f81610e36565b840191505092915050565b6117b381610d9f565b82525050565b600060c0830160008301516117d16000860182611751565b50602083015184820360208601526117e98282611771565b915050604083015184820360408601526118038282611771565b915050606083015161181860608601826117aa565b50608083015184820360808601526118308282611771565b91505060a083015184820360a086015261184a8282611771565b9150508091505092915050565b6000602082019050818103600083015261187181846117b9565b905092915050565b600081905092915050565b600061188f8261110f565b6118998185611879565b93506118a981856020860161112b565b80840191505092915050565b60006118c18284611884565b915081905092915050565b7f4e487b7100000000000000000000000000000000000000000000000000000000600052602260045260246000fd5b6000600282049050600182168061191357607f821691505b602082108103611926576119256118cc565b5b5091905056fea26469706673582212207376b329a5a7c8d45a820ef9e21bb71a46d0a823e7b8a89bc42d7fbb3f4642f864736f6c634300080d0033",
  "immutableReferences": {},
  "source": "// SPDX-License-Identifier: MIT\r\n\r\npragma solidity >=0.4.22 <0.9.0;\r\n\r\nimport \"./ActorsRegistration.sol\";\r\nimport \"./TreeCutting.sol\";\r\n\r\ncontract Transportation {\r\n\r\n    struct Transport {\r\n        uint8 nrTrees;\r\n        string car;\r\n        string cif;\r\n        uint departureTime;\r\n        string startLocation;\r\n        string destination;\r\n    }\r\n\r\n    bytes32[] public contracts;\r\n    mapping(bytes32 => Transport) public transportInfo;\r\n    mapping(bytes32 => uint16) public treesTransported; // cutting contract => trees transported\r\n    mapping(bytes32 => bytes32[]) public cuttingContractTransports; // cutting contract => transport contracts\r\n    mapping(string => bytes32[]) public carTransports; // number plate => transport contracts\r\n    mapping(string => bytes32[]) public companyTransports; // cif => transport contracts\r\n\r\n    ActorsRegistration private actors;\r\n    TreeCutting private cutting;\r\n\r\n    constructor(address actorsContractAddress, address cuttingContractAddress) {\r\n        actors = ActorsRegistration(actorsContractAddress);\r\n        cutting = TreeCutting(cuttingContractAddress);\r\n    }\r\n    \r\n    function createTransportContract(uint8 nrTrees, string memory car, string memory cif, string memory destination, bytes32 cuttingId) external returns (bytes32) {\r\n        require(actors.foresters(msg.sender), \"Not using a registered forester address\");\r\n        require(cutting.getContractSetAttribute(cuttingId), \"An already created cutting contract needs to be used\");\r\n        require(actors.cutterCompanies(cif) != address(0), \"Not using a registered cutter\");\r\n        require(treesTransported[cuttingId] + nrTrees <= cutting.getContractNrCutTrees(cuttingId), \r\n                \"Cannot transport more trees than what has been cut for cutting contract\");\r\n        treesTransported[cuttingId] += nrTrees;\r\n        Transport memory transport = Transport(nrTrees, car, cif, block.timestamp, cutting.getContractLocation(cuttingId), destination);\r\n        bytes32 transportId = keccak256(abi.encode(transport));\r\n        transportInfo[transportId] = transport;\r\n        cuttingContractTransports[cuttingId].push(transportId);\r\n        carTransports[car].push(transportId);\r\n        companyTransports[cif].push(transportId);\r\n        contracts.push(transportId);\r\n        return transportId;\r\n    }\r\n\r\n    function getContractsCount() external view returns (uint) {\r\n        return contracts.length;\r\n    }\r\n}",
  "sourcePath": "D:\\Faculta\\Year_4\\LICENTA\\tree-chain-react\\contracts\\Transportation.sol",
  "compiler": {
    "name": "solc",
    "version": "0.8.13+commit.abaa5c0e.Emscripten.clang"
  },
  "schemaVersion": "3.4.4",
  "updatedAt": "2022-04-19T09:57:24.260Z",
  "networkType": "ethereum",
  "devdoc": {
    "kind": "dev",
    "methods": {},
    "version": 1
  },
  "userdoc": {
    "kind": "user",
    "methods": {},
    "version": 1
  }
}