{
  "contractName": "TreeCutting",
  "abi": [
    {
      "inputs": [
        {
          "internalType": "address",
          "name": "actorsContractAddress",
          "type": "address"
        }
      ],
      "stateMutability": "nonpayable",
      "type": "constructor"
    },
    {
      "anonymous": false,
      "inputs": [
        {
          "indexed": false,
          "internalType": "bytes32",
          "name": "cutHash",
          "type": "bytes32"
        }
      ],
      "name": "CutCreated",
      "type": "event"
    },
    {
      "inputs": [
        {
          "internalType": "bytes8",
          "name": "",
          "type": "bytes8"
        },
        {
          "internalType": "uint256",
          "name": "",
          "type": "uint256"
        }
      ],
      "name": "companyContractHashes",
      "outputs": [
        {
          "internalType": "bytes32",
          "name": "",
          "type": "bytes32"
        }
      ],
      "stateMutability": "view",
      "type": "function",
      "constant": true
    },
    {
      "inputs": [
        {
          "internalType": "uint256",
          "name": "",
          "type": "uint256"
        }
      ],
      "name": "contractHashes",
      "outputs": [
        {
          "internalType": "bytes32",
          "name": "",
          "type": "bytes32"
        }
      ],
      "stateMutability": "view",
      "type": "function",
      "constant": true
    },
    {
      "inputs": [
        {
          "internalType": "bytes32",
          "name": "",
          "type": "bytes32"
        }
      ],
      "name": "contractInfo",
      "outputs": [
        {
          "internalType": "bytes8",
          "name": "tin",
          "type": "bytes8"
        },
        {
          "internalType": "uint16",
          "name": "agreedNrTrees",
          "type": "uint16"
        },
        {
          "internalType": "string",
          "name": "location",
          "type": "string"
        },
        {
          "internalType": "uint256",
          "name": "startTime",
          "type": "uint256"
        },
        {
          "internalType": "uint16",
          "name": "nrCutTrees",
          "type": "uint16"
        }
      ],
      "stateMutability": "view",
      "type": "function",
      "constant": true
    },
    {
      "inputs": [
        {
          "internalType": "bytes8",
          "name": "tin",
          "type": "bytes8"
        },
        {
          "internalType": "uint16",
          "name": "agreedNrTrees",
          "type": "uint16"
        },
        {
          "internalType": "string",
          "name": "location",
          "type": "string"
        }
      ],
      "name": "createCuttingContract",
      "outputs": [],
      "stateMutability": "nonpayable",
      "type": "function"
    },
    {
      "inputs": [
        {
          "internalType": "bytes32",
          "name": "cutHash",
          "type": "bytes32"
        }
      ],
      "name": "cut",
      "outputs": [],
      "stateMutability": "nonpayable",
      "type": "function"
    },
    {
      "inputs": [
        {
          "internalType": "bytes32",
          "name": "cutHash",
          "type": "bytes32"
        }
      ],
      "name": "getContractNrCutTrees",
      "outputs": [
        {
          "internalType": "uint16",
          "name": "",
          "type": "uint16"
        }
      ],
      "stateMutability": "view",
      "type": "function",
      "constant": true
    },
    {
      "inputs": [],
      "name": "getAllContractsCount",
      "outputs": [
        {
          "internalType": "uint256",
          "name": "",
          "type": "uint256"
        }
      ],
      "stateMutability": "view",
      "type": "function",
      "constant": true
    },
    {
      "inputs": [
        {
          "internalType": "bytes8",
          "name": "tin",
          "type": "bytes8"
        }
      ],
      "name": "getCompanyContractHashesCount",
      "outputs": [
        {
          "internalType": "uint256",
          "name": "",
          "type": "uint256"
        }
      ],
      "stateMutability": "view",
      "type": "function",
      "constant": true
    }
  ],
  "bytecode": "0x60806040523480156200001157600080fd5b506040516200155f3803806200155f8339818101604052810190620000379190620000e9565b80600360006101000a81548173ffffffffffffffffffffffffffffffffffffffff021916908373ffffffffffffffffffffffffffffffffffffffff160217905550506200011b565b600080fd5b600073ffffffffffffffffffffffffffffffffffffffff82169050919050565b6000620000b18262000084565b9050919050565b620000c381620000a4565b8114620000cf57600080fd5b50565b600081519050620000e381620000b8565b92915050565b6000602082840312156200010257620001016200007f565b5b60006200011284828501620000d2565b91505092915050565b611434806200012b6000396000f3fe608060405234801561001057600080fd5b50600436106100885760003560e01c8063aa3ab4681161005b578063aa3ab46814610113578063da91ef1814610143578063de75b0cc14610177578063f16a78f7146101a757610088565b806303ab78ff1461008d578063196a64e6146100a957806366254b84146100d9578063a42372fe146100f7575b600080fd5b6100a760048036038101906100a29190610bf4565b6101d7565b005b6100c360048036038101906100be9190610c99565b6105b9565b6040516100d09190610cd5565b60405180910390f35b6100e16105e7565b6040516100ee9190610d09565b60405180910390f35b610111600480360381019061010c9190610c99565b6105f3565b005b61012d60048036038101906101289190610d50565b6107d3565b60405161013a9190610d9f565b60405180910390f35b61015d60048036038101906101589190610c99565b610804565b60405161016e959493929190610e51565b60405180910390f35b610191600480360381019061018c9190610eab565b6108eb565b60405161019e9190610d09565b60405180910390f35b6101c160048036038101906101bc9190610ed8565b610941565b6040516101ce9190610d9f565b60405180910390f35b600360009054906101000a900473ffffffffffffffffffffffffffffffffffffffff1673ffffffffffffffffffffffffffffffffffffffff1663465f6b2b336040518263ffffffff1660e01b81526004016102329190610f46565b602060405180830381865afa15801561024f573d6000803e3d6000fd5b505050506040513d601f19601f820116820180604052508101906102739190610f99565b6102b2576040517f08c379a00000000000000000000000000000000000000000000000000000000081526004016102a990611038565b60405180910390fd5b600073ffffffffffffffffffffffffffffffffffffffff16600360009054906101000a900473ffffffffffffffffffffffffffffffffffffffff1673ffffffffffffffffffffffffffffffffffffffff166385188000856040518263ffffffff1660e01b81526004016103259190611058565b602060405180830381865afa158015610342573d6000803e3d6000fd5b505050506040513d601f19601f82011682018060405250810190610366919061109f565b73ffffffffffffffffffffffffffffffffffffffff16036103bc576040517f08c379a00000000000000000000000000000000000000000000000000000000081526004016103b390611118565b60405180910390fd5b60006040518060a001604052808577ffffffffffffffffffffffffffffffffffffffffffffffff191681526020018461ffff168152602001838152602001428152602001600061ffff16815250905060008160405160200161041e9190611225565b604051602081830303815290604052805190602001209050816001600083815260200190815260200160002060008201518160000160006101000a81548167ffffffffffffffff021916908360c01c021790555060208201518160000160086101000a81548161ffff021916908361ffff16021790555060408201518160010190805190602001906104b1929190610965565b506060820151816002015560808201518160030160006101000a81548161ffff021916908361ffff1602179055509050506000819080600181540180825580915050600190039060005260206000200160009091909190915055600260008677ffffffffffffffffffffffffffffffffffffffffffffffff191677ffffffffffffffffffffffffffffffffffffffffffffffff191681526020019081526020016000208190806001815401808255809150506001900390600052602060002001600090919091909150557f213c3fa90145d0f93fe0802591ac713282f928acec8e6b5f9de08752f9a73b0e816040516105aa9190610d9f565b60405180910390a15050505050565b60006001600083815260200190815260200160002060030160009054906101000a900461ffff169050919050565b60008080549050905090565b60006001600083815260200190815260200160002090503373ffffffffffffffffffffffffffffffffffffffff16600360009054906101000a900473ffffffffffffffffffffffffffffffffffffffff1673ffffffffffffffffffffffffffffffffffffffff1663851880008360000160009054906101000a900460c01b6040518263ffffffff1660e01b815260040161068d9190611058565b602060405180830381865afa1580156106aa573d6000803e3d6000fd5b505050506040513d601f19601f820116820180604052508101906106ce919061109f565b73ffffffffffffffffffffffffffffffffffffffff1614610724576040517f08c379a000000000000000000000000000000000000000000000000000000000815260040161071b906112b9565b60405180910390fd5b8060030160009054906101000a900461ffff1661ffff168160000160089054906101000a900461ffff1661ffff1611610792576040517f08c379a000000000000000000000000000000000000000000000000000000000815260040161078990611325565b60405180910390fd5b80600301600081819054906101000a900461ffff16809291906107b490611374565b91906101000a81548161ffff021916908361ffff160217905550505050565b600260205281600052604060002081815481106107ef57600080fd5b90600052602060002001600091509150505481565b60016020528060005260406000206000915090508060000160009054906101000a900460c01b908060000160089054906101000a900461ffff169080600101805461084e906113cd565b80601f016020809104026020016040519081016040528092919081815260200182805461087a906113cd565b80156108c75780601f1061089c576101008083540402835291602001916108c7565b820191906000526020600020905b8154815290600101906020018083116108aa57829003601f168201915b5050505050908060020154908060030160009054906101000a900461ffff16905085565b6000600260008377ffffffffffffffffffffffffffffffffffffffffffffffff191677ffffffffffffffffffffffffffffffffffffffffffffffff19168152602001908152602001600020805490509050919050565b6000818154811061095157600080fd5b906000526020600020016000915090505481565b828054610971906113cd565b90600052602060002090601f01602090048101928261099357600085556109da565b82601f106109ac57805160ff19168380011785556109da565b828001600101855582156109da579182015b828111156109d95782518255916020019190600101906109be565b5b5090506109e791906109eb565b5090565b5b80821115610a045760008160009055506001016109ec565b5090565b6000604051905090565b600080fd5b600080fd5b60007fffffffffffffffff00000000000000000000000000000000000000000000000082169050919050565b610a5181610a1c565b8114610a5c57600080fd5b50565b600081359050610a6e81610a48565b92915050565b600061ffff82169050919050565b610a8b81610a74565b8114610a9657600080fd5b50565b600081359050610aa881610a82565b92915050565b600080fd5b600080fd5b6000601f19601f8301169050919050565b7f4e487b7100000000000000000000000000000000000000000000000000000000600052604160045260246000fd5b610b0182610ab8565b810181811067ffffffffffffffff82111715610b2057610b1f610ac9565b5b80604052505050565b6000610b33610a08565b9050610b3f8282610af8565b919050565b600067ffffffffffffffff821115610b5f57610b5e610ac9565b5b610b6882610ab8565b9050602081019050919050565b82818337600083830152505050565b6000610b97610b9284610b44565b610b29565b905082815260208101848484011115610bb357610bb2610ab3565b5b610bbe848285610b75565b509392505050565b600082601f830112610bdb57610bda610aae565b5b8135610beb848260208601610b84565b91505092915050565b600080600060608486031215610c0d57610c0c610a12565b5b6000610c1b86828701610a5f565b9350506020610c2c86828701610a99565b925050604084013567ffffffffffffffff811115610c4d57610c4c610a17565b5b610c5986828701610bc6565b9150509250925092565b6000819050919050565b610c7681610c63565b8114610c8157600080fd5b50565b600081359050610c9381610c6d565b92915050565b600060208284031215610caf57610cae610a12565b5b6000610cbd84828501610c84565b91505092915050565b610ccf81610a74565b82525050565b6000602082019050610cea6000830184610cc6565b92915050565b6000819050919050565b610d0381610cf0565b82525050565b6000602082019050610d1e6000830184610cfa565b92915050565b610d2d81610cf0565b8114610d3857600080fd5b50565b600081359050610d4a81610d24565b92915050565b60008060408385031215610d6757610d66610a12565b5b6000610d7585828601610a5f565b9250506020610d8685828601610d3b565b9150509250929050565b610d9981610c63565b82525050565b6000602082019050610db46000830184610d90565b92915050565b610dc381610a1c565b82525050565b600081519050919050565b600082825260208201905092915050565b60005b83811015610e03578082015181840152602081019050610de8565b83811115610e12576000848401525b50505050565b6000610e2382610dc9565b610e2d8185610dd4565b9350610e3d818560208601610de5565b610e4681610ab8565b840191505092915050565b600060a082019050610e666000830188610dba565b610e736020830187610cc6565b8181036040830152610e858186610e18565b9050610e946060830185610cfa565b610ea16080830184610cc6565b9695505050505050565b600060208284031215610ec157610ec0610a12565b5b6000610ecf84828501610a5f565b91505092915050565b600060208284031215610eee57610eed610a12565b5b6000610efc84828501610d3b565b91505092915050565b600073ffffffffffffffffffffffffffffffffffffffff82169050919050565b6000610f3082610f05565b9050919050565b610f4081610f25565b82525050565b6000602082019050610f5b6000830184610f37565b92915050565b60008115159050919050565b610f7681610f61565b8114610f8157600080fd5b50565b600081519050610f9381610f6d565b92915050565b600060208284031215610faf57610fae610a12565b5b6000610fbd84828501610f84565b91505092915050565b7f4e6f74207573696e672061207265676973746572656420666f7265737465722060008201527f6164647265737300000000000000000000000000000000000000000000000000602082015250565b6000611022602783610dd4565b915061102d82610fc6565b604082019050919050565b6000602082019050818103600083015261105181611015565b9050919050565b600060208201905061106d6000830184610dba565b92915050565b61107c81610f25565b811461108757600080fd5b50565b60008151905061109981611073565b92915050565b6000602082840312156110b5576110b4610a12565b5b60006110c38482850161108a565b91505092915050565b7f4e6f74207573696e672061207265676973746572656420637574746572000000600082015250565b6000611102601d83610dd4565b915061110d826110cc565b602082019050919050565b60006020820190508181036000830152611131816110f5565b9050919050565b61114181610a1c565b82525050565b61115081610a74565b82525050565b600082825260208201905092915050565b600061117282610dc9565b61117c8185611156565b935061118c818560208601610de5565b61119581610ab8565b840191505092915050565b6111a981610cf0565b82525050565b600060a0830160008301516111c76000860182611138565b5060208301516111da6020860182611147565b50604083015184820360408601526111f28282611167565b915050606083015161120760608601826111a0565b50608083015161121a6080860182611147565b508091505092915050565b6000602082019050818103600083015261123f81846111af565b905092915050565b7f4e6f74207573696e672074686520636f6e7472616374277320636f6d70616e7960008201527f2061646472657373000000000000000000000000000000000000000000000000602082015250565b60006112a3602883610dd4565b91506112ae82611247565b604082019050919050565b600060208201905081810360008301526112d281611296565b9050919050565b7f4e6f207472656573206c65667420666f72207468697320636f6e747261637400600082015250565b600061130f601f83610dd4565b915061131a826112d9565b602082019050919050565b6000602082019050818103600083015261133e81611302565b9050919050565b7f4e487b7100000000000000000000000000000000000000000000000000000000600052601160045260246000fd5b600061137f82610a74565b915061ffff820361139357611392611345565b5b600182019050919050565b7f4e487b7100000000000000000000000000000000000000000000000000000000600052602260045260246000fd5b600060028204905060018216806113e557607f821691505b6020821081036113f8576113f761139e565b5b5091905056fea2646970667358221220aa90cd20e2d7448b1720c68cd1d16def2abb6dde4146d6f9243513f6f8f955b164736f6c634300080e0033",
  "immutableReferences": {},
  "source": "// SPDX-License-Identifier: MIT\r\n\r\npragma solidity >=0.4.22 <0.9.0;\r\n\r\nimport \"./ActorsRegistration.sol\";\r\n\r\ncontract TreeCutting {\r\n\r\n    struct CuttingContract {\r\n        bytes8 tin;\r\n        uint16 agreedNrTrees;\r\n        string location;\r\n        uint startTime; \r\n        uint16 nrCutTrees;\r\n    }\r\n\r\n    bytes32[] public contractHashes;\r\n    mapping(bytes32 => CuttingContract) public contractInfo;\r\n    mapping(bytes8 => bytes32[]) public companyContractHashes;\r\n\r\n    ActorsRegistration private actors;\r\n\r\n    event CutCreated(bytes32 cutHash);\r\n\r\n    constructor(address actorsContractAddress) {\r\n        actors = ActorsRegistration(actorsContractAddress);\r\n    }\r\n\r\n    function createCuttingContract(bytes8 tin, uint16 agreedNrTrees, string memory location) external {\r\n        require(actors.foresters(msg.sender), \"Not using a registered forester address\");\r\n        require(actors.getCompanyAddress(tin) != address(0), \"Not using a registered cutter\");\r\n\r\n        CuttingContract memory cuttingContract = CuttingContract(tin, agreedNrTrees, location, block.timestamp, 0);\r\n        bytes32 cutHash = keccak256(abi.encode(cuttingContract));\r\n        contractInfo[cutHash] = cuttingContract;\r\n        contractHashes.push(cutHash);\r\n        companyContractHashes[tin].push(cutHash);\r\n        emit CutCreated(cutHash);\r\n    }\r\n\r\n    function cut(bytes32 cutHash) external {\r\n        CuttingContract storage cuttingContract = contractInfo[cutHash];\r\n        require(actors.getCompanyAddress(cuttingContract.tin) == msg.sender, \"Not using the contract's company address\");\r\n        require(cuttingContract.agreedNrTrees > cuttingContract.nrCutTrees, \"No trees left for this contract\");\r\n\r\n        cuttingContract.nrCutTrees++;\r\n    }\r\n\r\n    function getContractNrCutTrees(bytes32 cutHash) view external returns (uint16) {\r\n        return contractInfo[cutHash].nrCutTrees;\r\n    }\r\n\r\n    function getAllContractsCount() external view returns (uint) {\r\n        return contractHashes.length;\r\n    }\r\n\r\n    function getCompanyContractHashesCount(bytes8 tin) external view returns (uint) {\r\n        return companyContractHashes[tin].length;\r\n    }\r\n}",
  "sourcePath": "D:\\Faculta\\Year_4\\LICENTA\\tree-chain-react\\contracts\\TreeCutting.sol",
  "compiler": {
    "name": "solc",
    "version": "0.8.14+commit.80d49f37.Emscripten.clang"
  },
  "schemaVersion": "3.4.4",
  "updatedAt": "2022-06-09T10:00:25.794Z",
  "networkType": "ethereum",
  "devdoc": {
    "kind": "dev",
    "methods": {},
    "version": 1
  },
  "userdoc": {
    "kind": "user",
    "methods": {},
    "version": 1
  }
}