{
  "contractName": "TreeCutting",
  "abi": [
    {
      "inputs": [
        {
          "internalType": "address",
          "name": "actorsContractAddress",
          "type": "address"
        }
      ],
      "stateMutability": "nonpayable",
      "type": "constructor"
    },
    {
      "anonymous": false,
      "inputs": [
        {
          "indexed": false,
          "internalType": "bytes32",
          "name": "cutHash",
          "type": "bytes32"
        }
      ],
      "name": "CutCreated",
      "type": "event"
    },
    {
      "inputs": [
        {
          "internalType": "bytes8",
          "name": "",
          "type": "bytes8"
        },
        {
          "internalType": "uint256",
          "name": "",
          "type": "uint256"
        }
      ],
      "name": "companyContractHashes",
      "outputs": [
        {
          "internalType": "bytes32",
          "name": "",
          "type": "bytes32"
        }
      ],
      "stateMutability": "view",
      "type": "function",
      "constant": true
    },
    {
      "inputs": [
        {
          "internalType": "uint256",
          "name": "",
          "type": "uint256"
        }
      ],
      "name": "contractHashes",
      "outputs": [
        {
          "internalType": "bytes32",
          "name": "",
          "type": "bytes32"
        }
      ],
      "stateMutability": "view",
      "type": "function",
      "constant": true
    },
    {
      "inputs": [
        {
          "internalType": "bytes32",
          "name": "",
          "type": "bytes32"
        }
      ],
      "name": "contractInfo",
      "outputs": [
        {
          "internalType": "bytes8",
          "name": "tin",
          "type": "bytes8"
        },
        {
          "internalType": "uint16",
          "name": "agreedNrTrees",
          "type": "uint16"
        },
        {
          "internalType": "string",
          "name": "location",
          "type": "string"
        },
        {
          "internalType": "uint256",
          "name": "startTime",
          "type": "uint256"
        },
        {
          "internalType": "uint16",
          "name": "nrCutTrees",
          "type": "uint16"
        }
      ],
      "stateMutability": "view",
      "type": "function",
      "constant": true
    },
    {
      "inputs": [
        {
          "internalType": "bytes8",
          "name": "tin",
          "type": "bytes8"
        },
        {
          "internalType": "uint16",
          "name": "agreedNrTrees",
          "type": "uint16"
        },
        {
          "internalType": "string",
          "name": "location",
          "type": "string"
        }
      ],
      "name": "createCuttingContract",
      "outputs": [],
      "stateMutability": "nonpayable",
      "type": "function"
    },
    {
      "inputs": [
        {
          "internalType": "bytes32",
          "name": "cutHash",
          "type": "bytes32"
        }
      ],
      "name": "cut",
      "outputs": [],
      "stateMutability": "nonpayable",
      "type": "function"
    },
    {
      "inputs": [
        {
          "internalType": "bytes32",
          "name": "cutHash",
          "type": "bytes32"
        }
      ],
      "name": "getContractNrCutTrees",
      "outputs": [
        {
          "internalType": "uint16",
          "name": "",
          "type": "uint16"
        }
      ],
      "stateMutability": "view",
      "type": "function",
      "constant": true
    },
    {
      "inputs": [],
      "name": "getAllContractsCount",
      "outputs": [
        {
          "internalType": "uint256",
          "name": "",
          "type": "uint256"
        }
      ],
      "stateMutability": "view",
      "type": "function",
      "constant": true
    },
    {
      "inputs": [
        {
          "internalType": "bytes8",
          "name": "tin",
          "type": "bytes8"
        }
      ],
      "name": "getCompanyContractHashesCount",
      "outputs": [
        {
          "internalType": "uint256",
          "name": "",
          "type": "uint256"
        }
      ],
      "stateMutability": "view",
      "type": "function",
      "constant": true
    }
  ],
  "bytecode": "0x608060405234801562000010575f80fd5b506040516200166c3803806200166c8339818101604052810190620000369190620000e2565b8060035f6101000a81548173ffffffffffffffffffffffffffffffffffffffff021916908373ffffffffffffffffffffffffffffffffffffffff1602179055505062000112565b5f80fd5b5f73ffffffffffffffffffffffffffffffffffffffff82169050919050565b5f620000ac8262000081565b9050919050565b620000be81620000a0565b8114620000c9575f80fd5b50565b5f81519050620000dc81620000b3565b92915050565b5f60208284031215620000fa57620000f96200007d565b5b5f6200010984828501620000cc565b91505092915050565b61154c80620001205f395ff3fe608060405234801561000f575f80fd5b5060043610610086575f3560e01c8063aa3ab46811610059578063aa3ab46814610110578063da91ef1814610140578063de75b0cc14610174578063f16a78f7146101a457610086565b806303ab78ff1461008a578063196a64e6146100a657806366254b84146100d6578063a42372fe146100f4575b5f80fd5b6100a4600480360381019061009f9190610af3565b6101d4565b005b6100c060048036038101906100bb9190610b92565b610595565b6040516100cd9190610bcc565b60405180910390f35b6100de6105bf565b6040516100eb9190610bfd565b60405180910390f35b61010e60048036038101906101099190610b92565b6105ca565b005b61012a60048036038101906101259190610c40565b61079f565b6040516101379190610c8d565b60405180910390f35b61015a60048036038101906101559190610b92565b6107ca565b60405161016b959493929190610d2f565b60405180910390f35b61018e60048036038101906101899190610d87565b6108a8565b60405161019b9190610bfd565b60405180910390f35b6101be60048036038101906101b99190610db2565b6108fb565b6040516101cb9190610c8d565b60405180910390f35b60035f9054906101000a900473ffffffffffffffffffffffffffffffffffffffff1673ffffffffffffffffffffffffffffffffffffffff1663465f6b2b336040518263ffffffff1660e01b815260040161022e9190610e1c565b602060405180830381865afa158015610249573d5f803e3d5ffd5b505050506040513d601f19601f8201168201806040525081019061026d9190610e6a565b6102ac576040517f08c379a00000000000000000000000000000000000000000000000000000000081526004016102a390610f05565b60405180910390fd5b5f73ffffffffffffffffffffffffffffffffffffffff1660035f9054906101000a900473ffffffffffffffffffffffffffffffffffffffff1673ffffffffffffffffffffffffffffffffffffffff166385188000856040518263ffffffff1660e01b815260040161031d9190610f23565b602060405180830381865afa158015610338573d5f803e3d5ffd5b505050506040513d601f19601f8201168201806040525081019061035c9190610f66565b73ffffffffffffffffffffffffffffffffffffffff16036103b2576040517f08c379a00000000000000000000000000000000000000000000000000000000081526004016103a990610fdb565b60405180910390fd5b5f6040518060a001604052808577ffffffffffffffffffffffffffffffffffffffffffffffff191681526020018461ffff1681526020018381526020014281526020015f61ffff1681525090505f8160405160200161041191906110e1565b6040516020818303038152906040528051906020012090508160015f8381526020019081526020015f205f820151815f015f6101000a81548167ffffffffffffffff021916908360c01c02179055506020820151815f0160086101000a81548161ffff021916908361ffff160217905550604082015181600101908161049791906112fb565b50606082015181600201556080820151816003015f6101000a81548161ffff021916908361ffff1602179055509050505f81908060018154018082558091505060019003905f5260205f20015f909190919091505560025f8677ffffffffffffffffffffffffffffffffffffffffffffffff191677ffffffffffffffffffffffffffffffffffffffffffffffff191681526020019081526020015f2081908060018154018082558091505060019003905f5260205f20015f90919091909150557f213c3fa90145d0f93fe0802591ac713282f928acec8e6b5f9de08752f9a73b0e816040516105869190610c8d565b60405180910390a15050505050565b5f60015f8381526020019081526020015f206003015f9054906101000a900461ffff169050919050565b5f8080549050905090565b5f60015f8381526020019081526020015f2090503373ffffffffffffffffffffffffffffffffffffffff1660035f9054906101000a900473ffffffffffffffffffffffffffffffffffffffff1673ffffffffffffffffffffffffffffffffffffffff166385188000835f015f9054906101000a900460c01b6040518263ffffffff1660e01b815260040161065e9190610f23565b602060405180830381865afa158015610679573d5f803e3d5ffd5b505050506040513d601f19601f8201168201806040525081019061069d9190610f66565b73ffffffffffffffffffffffffffffffffffffffff16146106f3576040517f08c379a00000000000000000000000000000000000000000000000000000000081526004016106ea9061143a565b60405180910390fd5b806003015f9054906101000a900461ffff1661ffff16815f0160089054906101000a900461ffff1661ffff161161075f576040517f08c379a0000000000000000000000000000000000000000000000000000000008152600401610756906114a2565b60405180910390fd5b806003015f81819054906101000a900461ffff1680929190610780906114ed565b91906101000a81548161ffff021916908361ffff160217905550505050565b6002602052815f5260405f2081815481106107b8575f80fd5b905f5260205f20015f91509150505481565b6001602052805f5260405f205f91509050805f015f9054906101000a900460c01b90805f0160089054906101000a900461ffff169080600101805461080e9061112e565b80601f016020809104026020016040519081016040528092919081815260200182805461083a9061112e565b80156108855780601f1061085c57610100808354040283529160200191610885565b820191905f5260205f20905b81548152906001019060200180831161086857829003601f168201915b505050505090806002015490806003015f9054906101000a900461ffff16905085565b5f60025f8377ffffffffffffffffffffffffffffffffffffffffffffffff191677ffffffffffffffffffffffffffffffffffffffffffffffff191681526020019081526020015f20805490509050919050565b5f8181548110610909575f80fd5b905f5260205f20015f915090505481565b5f604051905090565b5f80fd5b5f80fd5b5f7fffffffffffffffff00000000000000000000000000000000000000000000000082169050919050565b61095f8161092b565b8114610969575f80fd5b50565b5f8135905061097a81610956565b92915050565b5f61ffff82169050919050565b61099681610980565b81146109a0575f80fd5b50565b5f813590506109b18161098d565b92915050565b5f80fd5b5f80fd5b5f601f19601f8301169050919050565b7f4e487b71000000000000000000000000000000000000000000000000000000005f52604160045260245ffd5b610a05826109bf565b810181811067ffffffffffffffff82111715610a2457610a236109cf565b5b80604052505050565b5f610a3661091a565b9050610a4282826109fc565b919050565b5f67ffffffffffffffff821115610a6157610a606109cf565b5b610a6a826109bf565b9050602081019050919050565b828183375f83830152505050565b5f610a97610a9284610a47565b610a2d565b905082815260208101848484011115610ab357610ab26109bb565b5b610abe848285610a77565b509392505050565b5f82601f830112610ada57610ad96109b7565b5b8135610aea848260208601610a85565b91505092915050565b5f805f60608486031215610b0a57610b09610923565b5b5f610b178682870161096c565b9350506020610b28868287016109a3565b925050604084013567ffffffffffffffff811115610b4957610b48610927565b5b610b5586828701610ac6565b9150509250925092565b5f819050919050565b610b7181610b5f565b8114610b7b575f80fd5b50565b5f81359050610b8c81610b68565b92915050565b5f60208284031215610ba757610ba6610923565b5b5f610bb484828501610b7e565b91505092915050565b610bc681610980565b82525050565b5f602082019050610bdf5f830184610bbd565b92915050565b5f819050919050565b610bf781610be5565b82525050565b5f602082019050610c105f830184610bee565b92915050565b610c1f81610be5565b8114610c29575f80fd5b50565b5f81359050610c3a81610c16565b92915050565b5f8060408385031215610c5657610c55610923565b5b5f610c638582860161096c565b9250506020610c7485828601610c2c565b9150509250929050565b610c8781610b5f565b82525050565b5f602082019050610ca05f830184610c7e565b92915050565b610caf8161092b565b82525050565b5f81519050919050565b5f82825260208201905092915050565b5f5b83811015610cec578082015181840152602081019050610cd1565b5f8484015250505050565b5f610d0182610cb5565b610d0b8185610cbf565b9350610d1b818560208601610ccf565b610d24816109bf565b840191505092915050565b5f60a082019050610d425f830188610ca6565b610d4f6020830187610bbd565b8181036040830152610d618186610cf7565b9050610d706060830185610bee565b610d7d6080830184610bbd565b9695505050505050565b5f60208284031215610d9c57610d9b610923565b5b5f610da98482850161096c565b91505092915050565b5f60208284031215610dc757610dc6610923565b5b5f610dd484828501610c2c565b91505092915050565b5f73ffffffffffffffffffffffffffffffffffffffff82169050919050565b5f610e0682610ddd565b9050919050565b610e1681610dfc565b82525050565b5f602082019050610e2f5f830184610e0d565b92915050565b5f8115159050919050565b610e4981610e35565b8114610e53575f80fd5b50565b5f81519050610e6481610e40565b92915050565b5f60208284031215610e7f57610e7e610923565b5b5f610e8c84828501610e56565b91505092915050565b7f4e6f74207573696e672061207265676973746572656420666f726573746572205f8201527f6164647265737300000000000000000000000000000000000000000000000000602082015250565b5f610eef602783610cbf565b9150610efa82610e95565b604082019050919050565b5f6020820190508181035f830152610f1c81610ee3565b9050919050565b5f602082019050610f365f830184610ca6565b92915050565b610f4581610dfc565b8114610f4f575f80fd5b50565b5f81519050610f6081610f3c565b92915050565b5f60208284031215610f7b57610f7a610923565b5b5f610f8884828501610f52565b91505092915050565b7f4e6f74207573696e6720612072656769737465726564206375747465720000005f82015250565b5f610fc5601d83610cbf565b9150610fd082610f91565b602082019050919050565b5f6020820190508181035f830152610ff281610fb9565b9050919050565b6110028161092b565b82525050565b61101181610980565b82525050565b5f82825260208201905092915050565b5f61103182610cb5565b61103b8185611017565b935061104b818560208601610ccf565b611054816109bf565b840191505092915050565b61106881610be5565b82525050565b5f60a083015f8301516110835f860182610ff9565b5060208301516110966020860182611008565b50604083015184820360408601526110ae8282611027565b91505060608301516110c3606086018261105f565b5060808301516110d66080860182611008565b508091505092915050565b5f6020820190508181035f8301526110f9818461106e565b905092915050565b7f4e487b71000000000000000000000000000000000000000000000000000000005f52602260045260245ffd5b5f600282049050600182168061114557607f821691505b60208210810361115857611157611101565b5b50919050565b5f819050815f5260205f209050919050565b5f6020601f8301049050919050565b5f82821b905092915050565b5f600883026111ba7fffffffffffffffffffffffffffffffffffffffffffffffffffffffffffffffff8261117f565b6111c4868361117f565b95508019841693508086168417925050509392505050565b5f819050919050565b5f6111ff6111fa6111f584610be5565b6111dc565b610be5565b9050919050565b5f819050919050565b611218836111e5565b61122c61122482611206565b84845461118b565b825550505050565b5f90565b611240611234565b61124b81848461120f565b505050565b5b8181101561126e576112635f82611238565b600181019050611251565b5050565b601f8211156112b3576112848161115e565b61128d84611170565b8101602085101561129c578190505b6112b06112a885611170565b830182611250565b50505b505050565b5f82821c905092915050565b5f6112d35f19846008026112b8565b1980831691505092915050565b5f6112eb83836112c4565b9150826002028217905092915050565b61130482610cb5565b67ffffffffffffffff81111561131d5761131c6109cf565b5b611327825461112e565b611332828285611272565b5f60209050601f831160018114611363575f8415611351578287015190505b61135b85826112e0565b8655506113c2565b601f1984166113718661115e565b5f5b8281101561139857848901518255600182019150602085019450602081019050611373565b868310156113b557848901516113b1601f8916826112c4565b8355505b6001600288020188555050505b505050505050565b7f4e6f74207573696e672074686520636f6e7472616374277320636f6d70616e795f8201527f2061646472657373000000000000000000000000000000000000000000000000602082015250565b5f611424602883610cbf565b915061142f826113ca565b604082019050919050565b5f6020820190508181035f83015261145181611418565b9050919050565b7f4e6f207472656573206c65667420666f72207468697320636f6e7472616374005f82015250565b5f61148c601f83610cbf565b915061149782611458565b602082019050919050565b5f6020820190508181035f8301526114b981611480565b9050919050565b7f4e487b71000000000000000000000000000000000000000000000000000000005f52601160045260245ffd5b5f6114f782610980565b915061ffff820361150b5761150a6114c0565b5b60018201905091905056fea2646970667358221220a6f78fc07ddd485f7e5adf2b1827d8fae82c845c5b788fbe8bcc1f6bb9ba86d464736f6c63430008150033",
  "immutableReferences": {},
  "source": "// SPDX-License-Identifier: MIT\r\n\r\npragma solidity >=0.4.22 <0.9.0;\r\n\r\nimport \"./ActorsRegistration.sol\";\r\n\r\ncontract TreeCutting {\r\n\r\n    struct CuttingContract {\r\n        bytes8 tin;\r\n        uint16 agreedNrTrees;\r\n        string location;\r\n        uint startTime; \r\n        uint16 nrCutTrees;\r\n    }\r\n\r\n    bytes32[] public contractHashes;\r\n    mapping(bytes32 => CuttingContract) public contractInfo;\r\n    mapping(bytes8 => bytes32[]) public companyContractHashes;\r\n\r\n    ActorsRegistration private actors;\r\n\r\n    event CutCreated(bytes32 cutHash);\r\n\r\n    constructor(address actorsContractAddress) {\r\n        actors = ActorsRegistration(actorsContractAddress);\r\n    }\r\n\r\n    function createCuttingContract(bytes8 tin, uint16 agreedNrTrees, string memory location) external {\r\n        require(actors.foresters(msg.sender), \"Not using a registered forester address\");\r\n        require(actors.getCompanyAddress(tin) != address(0), \"Not using a registered cutter\");\r\n\r\n        CuttingContract memory cuttingContract = CuttingContract(tin, agreedNrTrees, location, block.timestamp, 0);\r\n        bytes32 cutHash = keccak256(abi.encode(cuttingContract));\r\n        contractInfo[cutHash] = cuttingContract;\r\n        contractHashes.push(cutHash);\r\n        companyContractHashes[tin].push(cutHash);\r\n        emit CutCreated(cutHash);\r\n    }\r\n\r\n    function cut(bytes32 cutHash) external {\r\n        CuttingContract storage cuttingContract = contractInfo[cutHash];\r\n        require(actors.getCompanyAddress(cuttingContract.tin) == msg.sender, \"Not using the contract's company address\");\r\n        require(cuttingContract.agreedNrTrees > cuttingContract.nrCutTrees, \"No trees left for this contract\");\r\n\r\n        cuttingContract.nrCutTrees++;\r\n    }\r\n\r\n    function getContractNrCutTrees(bytes32 cutHash) view external returns (uint16) {\r\n        return contractInfo[cutHash].nrCutTrees;\r\n    }\r\n\r\n    function getAllContractsCount() external view returns (uint) {\r\n        return contractHashes.length;\r\n    }\r\n\r\n    function getCompanyContractHashesCount(bytes8 tin) external view returns (uint) {\r\n        return companyContractHashes[tin].length;\r\n    }\r\n}",
  "sourcePath": "D:\\Code\\tree-buddy\\contracts\\TreeCutting.sol",
  "compiler": {
    "name": "solc",
    "version": "0.8.21+commit.d9974bed.Emscripten.clang"
  },
  "schemaVersion": "3.4.4",
  "updatedAt": "2023-08-31T11:48:14.065Z",
  "networkType": "ethereum",
  "devdoc": {
    "kind": "dev",
    "methods": {},
    "version": 1
  },
  "userdoc": {
    "kind": "user",
    "methods": {},
    "version": 1
  }
}