{
  "contractName": "TreeCutting",
  "abi": [
    {
      "inputs": [
        {
          "internalType": "address",
          "name": "actorsContractAddress",
          "type": "address"
        }
      ],
      "stateMutability": "nonpayable",
      "type": "constructor"
    },
    {
      "inputs": [
        {
          "internalType": "bytes32",
          "name": "",
          "type": "bytes32"
        }
      ],
      "name": "contractInfo",
      "outputs": [
        {
          "internalType": "bool",
          "name": "set",
          "type": "bool"
        },
        {
          "internalType": "string",
          "name": "cif",
          "type": "string"
        },
        {
          "internalType": "uint16",
          "name": "agreedNrTrees",
          "type": "uint16"
        },
        {
          "internalType": "string",
          "name": "location",
          "type": "string"
        },
        {
          "internalType": "uint16",
          "name": "parcel",
          "type": "uint16"
        },
        {
          "internalType": "uint256",
          "name": "startTime",
          "type": "uint256"
        }
      ],
      "stateMutability": "view",
      "type": "function",
      "constant": true
    },
    {
      "inputs": [
        {
          "internalType": "uint256",
          "name": "",
          "type": "uint256"
        }
      ],
      "name": "contracts",
      "outputs": [
        {
          "internalType": "bytes32",
          "name": "",
          "type": "bytes32"
        }
      ],
      "stateMutability": "view",
      "type": "function",
      "constant": true
    },
    {
      "inputs": [
        {
          "internalType": "bytes32",
          "name": "",
          "type": "bytes32"
        }
      ],
      "name": "treesLeftForContract",
      "outputs": [
        {
          "internalType": "uint16",
          "name": "",
          "type": "uint16"
        }
      ],
      "stateMutability": "view",
      "type": "function",
      "constant": true
    },
    {
      "inputs": [
        {
          "internalType": "string",
          "name": "cif",
          "type": "string"
        },
        {
          "internalType": "uint16",
          "name": "agreedNrTrees",
          "type": "uint16"
        },
        {
          "internalType": "string",
          "name": "location",
          "type": "string"
        },
        {
          "internalType": "uint16",
          "name": "parcel",
          "type": "uint16"
        }
      ],
      "name": "createContract",
      "outputs": [
        {
          "internalType": "bytes32",
          "name": "",
          "type": "bytes32"
        }
      ],
      "stateMutability": "nonpayable",
      "type": "function"
    },
    {
      "inputs": [
        {
          "internalType": "bytes32",
          "name": "contractId",
          "type": "bytes32"
        }
      ],
      "name": "cut",
      "outputs": [],
      "stateMutability": "nonpayable",
      "type": "function"
    },
    {
      "inputs": [
        {
          "internalType": "bytes32",
          "name": "contractId",
          "type": "bytes32"
        }
      ],
      "name": "getContractSetAttribute",
      "outputs": [
        {
          "internalType": "bool",
          "name": "",
          "type": "bool"
        }
      ],
      "stateMutability": "view",
      "type": "function",
      "constant": true
    },
    {
      "inputs": [
        {
          "internalType": "bytes32",
          "name": "contractId",
          "type": "bytes32"
        }
      ],
      "name": "getContractNrCutTrees",
      "outputs": [
        {
          "internalType": "uint16",
          "name": "",
          "type": "uint16"
        }
      ],
      "stateMutability": "view",
      "type": "function",
      "constant": true
    },
    {
      "inputs": [
        {
          "internalType": "bytes32",
          "name": "contractId",
          "type": "bytes32"
        }
      ],
      "name": "getContractLocation",
      "outputs": [
        {
          "internalType": "string",
          "name": "",
          "type": "string"
        }
      ],
      "stateMutability": "view",
      "type": "function",
      "constant": true
    },
    {
      "inputs": [],
      "name": "getContractsCount",
      "outputs": [
        {
          "internalType": "uint256",
          "name": "",
          "type": "uint256"
        }
      ],
      "stateMutability": "view",
      "type": "function",
      "constant": true
    }
  ],
  "bytecode": "0x60806040523480156200001157600080fd5b506040516200179c3803806200179c8339818101604052810190620000379190620000e9565b80600460006101000a81548173ffffffffffffffffffffffffffffffffffffffff021916908373ffffffffffffffffffffffffffffffffffffffff160217905550506200011b565b600080fd5b600073ffffffffffffffffffffffffffffffffffffffff82169050919050565b6000620000b18262000084565b9050919050565b620000c381620000a4565b8114620000cf57600080fd5b50565b600081519050620000e381620000b8565b92915050565b6000602082840312156200010257620001016200007f565b5b60006200011284828501620000d2565b91505092915050565b611671806200012b6000396000f3fe608060405234801561001057600080fd5b50600436106100935760003560e01c8063474da79a11610066578063474da79a146101585780639683584f14610188578063a42372fe146101a6578063cebd680b146101c2578063da91ef18146101f257610093565b80630398eea514610098578063196a64e6146100c857806320fdf62c146100f85780632d3aca4f14610128575b600080fd5b6100b260048036038101906100ad9190610b96565b610227565b6040516100bf9190610be0565b60405180910390f35b6100e260048036038101906100dd9190610b96565b610248565b6040516100ef9190610be0565b60405180910390f35b610112600480360381019061010d9190610b96565b6102a2565b60405161011f9190610c16565b60405180910390f35b610142600480360381019061013d9190610b96565b6102cf565b60405161014f9190610cca565b60405180910390f35b610172600480360381019061016d9190610d22565b610377565b60405161017f9190610d5e565b60405180910390f35b61019061039b565b60405161019d9190610d88565b60405180910390f35b6101c060048036038101906101bb9190610b96565b6103a7565b005b6101dc60048036038101906101d79190610f04565b61057c565b6040516101e99190610d5e565b60405180910390f35b61020c60048036038101906102079190610b96565b610934565b60405161021e96959493929190610fa3565b60405180910390f35b60026020528060005260406000206000915054906101000a900461ffff1681565b60006002600083815260200190815260200160002060009054906101000a900461ffff166001600084815260200190815260200160002060020160009054906101000a900461ffff1661029b9190611041565b9050919050565b60006001600083815260200190815260200160002060000160009054906101000a900460ff169050919050565b60606001600083815260200190815260200160002060030180546102f2906110a4565b80601f016020809104026020016040519081016040528092919081815260200182805461031e906110a4565b801561036b5780601f106103405761010080835404028352916020019161036b565b820191906000526020600020905b81548152906001019060200180831161034e57829003601f168201915b50505050509050919050565b6000818154811061038757600080fd5b906000526020600020016000915090505481565b60008080549050905090565b3373ffffffffffffffffffffffffffffffffffffffff16600460009054906101000a900473ffffffffffffffffffffffffffffffffffffffff1673ffffffffffffffffffffffffffffffffffffffff16632914263f600160008581526020019081526020016000206001016040518263ffffffff1660e01b815260040161042e919061116a565b602060405180830381865afa15801561044b573d6000803e3d6000fd5b505050506040513d601f19601f8201168201806040525081019061046f91906111ea565b73ffffffffffffffffffffffffffffffffffffffff16146104c5576040517f08c379a00000000000000000000000000000000000000000000000000000000081526004016104bc90611289565b60405180910390fd5b60006002600083815260200190815260200160002060009054906101000a900461ffff1661ffff161161052d576040517f08c379a0000000000000000000000000000000000000000000000000000000008152600401610524906112f5565b60405180910390fd5b60026000828152602001908152602001600020600081819054906101000a900461ffff168092919061055e90611315565b91906101000a81548161ffff021916908361ffff1602179055505050565b6000600460009054906101000a900473ffffffffffffffffffffffffffffffffffffffff1673ffffffffffffffffffffffffffffffffffffffff1663465f6b2b336040518263ffffffff1660e01b81526004016105d9919061134d565b602060405180830381865afa1580156105f6573d6000803e3d6000fd5b505050506040513d601f19601f8201168201806040525081019061061a9190611394565b610659576040517f08c379a000000000000000000000000000000000000000000000000000000000815260040161065090611433565b60405180910390fd5b600073ffffffffffffffffffffffffffffffffffffffff16600460009054906101000a900473ffffffffffffffffffffffffffffffffffffffff1673ffffffffffffffffffffffffffffffffffffffff16632914263f876040518263ffffffff1660e01b81526004016106cc9190610cca565b602060405180830381865afa1580156106e9573d6000803e3d6000fd5b505050506040513d601f19601f8201168201806040525081019061070d91906111ea565b73ffffffffffffffffffffffffffffffffffffffff1603610763576040517f08c379a000000000000000000000000000000000000000000000000000000000815260040161075a9061149f565b60405180910390fd5b60006040518060c001604052806001151581526020018781526020018661ffff1681526020018581526020018461ffff1681526020014281525090506000816040516020016107b291906115c6565b604051602081830303815290604052805190602001209050816001600083815260200190815260200160002060008201518160000160006101000a81548160ff021916908315150217905550602082015181600101908051906020019061081a929190610aa9565b5060408201518160020160006101000a81548161ffff021916908361ffff160217905550606082015181600301908051906020019061085a929190610aa9565b5060808201518160040160006101000a81548161ffff021916908361ffff16021790555060a08201518160050155905050856002600083815260200190815260200160002060006101000a81548161ffff021916908361ffff16021790555060008190806001815401808255809150506001900390600052602060002001600090919091909150556003876040516108f29190611624565b90815260200160405180910390208190806001815401808255809150506001900390600052602060002001600090919091909150558092505050949350505050565b60016020528060005260406000206000915090508060000160009054906101000a900460ff169080600101805461096a906110a4565b80601f0160208091040260200160405190810160405280929190818152602001828054610996906110a4565b80156109e35780601f106109b8576101008083540402835291602001916109e3565b820191906000526020600020905b8154815290600101906020018083116109c657829003601f168201915b5050505050908060020160009054906101000a900461ffff1690806003018054610a0c906110a4565b80601f0160208091040260200160405190810160405280929190818152602001828054610a38906110a4565b8015610a855780601f10610a5a57610100808354040283529160200191610a85565b820191906000526020600020905b815481529060010190602001808311610a6857829003601f168201915b5050505050908060040160009054906101000a900461ffff16908060050154905086565b828054610ab5906110a4565b90600052602060002090601f016020900481019282610ad75760008555610b1e565b82601f10610af057805160ff1916838001178555610b1e565b82800160010185558215610b1e579182015b82811115610b1d578251825591602001919060010190610b02565b5b509050610b2b9190610b2f565b5090565b5b80821115610b48576000816000905550600101610b30565b5090565b6000604051905090565b600080fd5b600080fd5b6000819050919050565b610b7381610b60565b8114610b7e57600080fd5b50565b600081359050610b9081610b6a565b92915050565b600060208284031215610bac57610bab610b56565b5b6000610bba84828501610b81565b91505092915050565b600061ffff82169050919050565b610bda81610bc3565b82525050565b6000602082019050610bf56000830184610bd1565b92915050565b60008115159050919050565b610c1081610bfb565b82525050565b6000602082019050610c2b6000830184610c07565b92915050565b600081519050919050565b600082825260208201905092915050565b60005b83811015610c6b578082015181840152602081019050610c50565b83811115610c7a576000848401525b50505050565b6000601f19601f8301169050919050565b6000610c9c82610c31565b610ca68185610c3c565b9350610cb6818560208601610c4d565b610cbf81610c80565b840191505092915050565b60006020820190508181036000830152610ce48184610c91565b905092915050565b6000819050919050565b610cff81610cec565b8114610d0a57600080fd5b50565b600081359050610d1c81610cf6565b92915050565b600060208284031215610d3857610d37610b56565b5b6000610d4684828501610d0d565b91505092915050565b610d5881610b60565b82525050565b6000602082019050610d736000830184610d4f565b92915050565b610d8281610cec565b82525050565b6000602082019050610d9d6000830184610d79565b92915050565b600080fd5b600080fd5b7f4e487b7100000000000000000000000000000000000000000000000000000000600052604160045260246000fd5b610de582610c80565b810181811067ffffffffffffffff82111715610e0457610e03610dad565b5b80604052505050565b6000610e17610b4c565b9050610e238282610ddc565b919050565b600067ffffffffffffffff821115610e4357610e42610dad565b5b610e4c82610c80565b9050602081019050919050565b82818337600083830152505050565b6000610e7b610e7684610e28565b610e0d565b905082815260208101848484011115610e9757610e96610da8565b5b610ea2848285610e59565b509392505050565b600082601f830112610ebf57610ebe610da3565b5b8135610ecf848260208601610e68565b91505092915050565b610ee181610bc3565b8114610eec57600080fd5b50565b600081359050610efe81610ed8565b92915050565b60008060008060808587031215610f1e57610f1d610b56565b5b600085013567ffffffffffffffff811115610f3c57610f3b610b5b565b5b610f4887828801610eaa565b9450506020610f5987828801610eef565b935050604085013567ffffffffffffffff811115610f7a57610f79610b5b565b5b610f8687828801610eaa565b9250506060610f9787828801610eef565b91505092959194509250565b600060c082019050610fb86000830189610c07565b8181036020830152610fca8188610c91565b9050610fd96040830187610bd1565b8181036060830152610feb8186610c91565b9050610ffa6080830185610bd1565b61100760a0830184610d79565b979650505050505050565b7f4e487b7100000000000000000000000000000000000000000000000000000000600052601160045260246000fd5b600061104c82610bc3565b915061105783610bc3565b92508282101561106a57611069611012565b5b828203905092915050565b7f4e487b7100000000000000000000000000000000000000000000000000000000600052602260045260246000fd5b600060028204905060018216806110bc57607f821691505b6020821081036110cf576110ce611075565b5b50919050565b60008190508160005260206000209050919050565b600081546110f7816110a4565b6111018186610c3c565b9450600182166000811461111c576001811461112e57611161565b60ff1983168652602086019350611161565b611137856110d5565b60005b838110156111595781548189015260018201915060208101905061113a565b808801955050505b50505092915050565b6000602082019050818103600083015261118481846110ea565b905092915050565b600073ffffffffffffffffffffffffffffffffffffffff82169050919050565b60006111b78261118c565b9050919050565b6111c7816111ac565b81146111d257600080fd5b50565b6000815190506111e4816111be565b92915050565b600060208284031215611200576111ff610b56565b5b600061120e848285016111d5565b91505092915050565b7f4e6f74207573696e672074686520636f6e7472616374277320636f6d70616e7960008201527f2061646472657373000000000000000000000000000000000000000000000000602082015250565b6000611273602883610c3c565b915061127e82611217565b604082019050919050565b600060208201905081810360008301526112a281611266565b9050919050565b7f4e6f207472656573206c65667420666f72207468697320636f6e747261637400600082015250565b60006112df601f83610c3c565b91506112ea826112a9565b602082019050919050565b6000602082019050818103600083015261130e816112d2565b9050919050565b600061132082610bc3565b91506000820361133357611332611012565b5b600182039050919050565b611347816111ac565b82525050565b6000602082019050611362600083018461133e565b92915050565b61137181610bfb565b811461137c57600080fd5b50565b60008151905061138e81611368565b92915050565b6000602082840312156113aa576113a9610b56565b5b60006113b88482850161137f565b91505092915050565b7f4e6f74207573696e672061207265676973746572656420666f7265737465722060008201527f6164647265737300000000000000000000000000000000000000000000000000602082015250565b600061141d602783610c3c565b9150611428826113c1565b604082019050919050565b6000602082019050818103600083015261144c81611410565b9050919050565b7f4e6f74207573696e672061207265676973746572656420637574746572000000600082015250565b6000611489601d83610c3c565b915061149482611453565b602082019050919050565b600060208201905081810360008301526114b88161147c565b9050919050565b6114c881610bfb565b82525050565b600082825260208201905092915050565b60006114ea82610c31565b6114f481856114ce565b9350611504818560208601610c4d565b61150d81610c80565b840191505092915050565b61152181610bc3565b82525050565b61153081610cec565b82525050565b600060c08301600083015161154e60008601826114bf565b506020830151848203602086015261156682826114df565b915050604083015161157b6040860182611518565b506060830151848203606086015261159382826114df565b91505060808301516115a86080860182611518565b5060a08301516115bb60a0860182611527565b508091505092915050565b600060208201905081810360008301526115e08184611536565b905092915050565b600081905092915050565b60006115fe82610c31565b61160881856115e8565b9350611618818560208601610c4d565b80840191505092915050565b600061163082846115f3565b91508190509291505056fea264697066735822122042b2571d4579f665ca7fd058494494a05506918fb3c9f8297d69038e6cc96a3f64736f6c634300080d0033",
  "immutableReferences": {},
  "source": "// SPDX-License-Identifier: MIT\r\n\r\npragma solidity >=0.4.22 <0.9.0;\r\n\r\nimport \"./ActorsRegistration.sol\";\r\n\r\ncontract TreeCutting {\r\n\r\n    struct CuttingContract {\r\n        bool set;\r\n        string cif;\r\n        uint16 agreedNrTrees;\r\n        string location;\r\n        uint16 parcel;\r\n        uint startTime; // in seconds from epoch\r\n    }\r\n\r\n    bytes32[] public contracts;\r\n    mapping(bytes32 => CuttingContract) public contractInfo;\r\n    mapping(bytes32 => uint16) public treesLeftForContract;\r\n    mapping(string => bytes32[]) companyContracts;\r\n\r\n    ActorsRegistration private actors;\r\n\r\n    constructor(address actorsContractAddress) {\r\n        actors = ActorsRegistration(actorsContractAddress);\r\n    }\r\n\r\n    function createContract(string memory cif, uint16 agreedNrTrees, string memory location, uint16 parcel) external returns (bytes32) {\r\n        require(actors.foresters(msg.sender), \"Not using a registered forester address\");\r\n        require(actors.cutterCompanies(cif) != address(0), \"Not using a registered cutter\");\r\n        CuttingContract memory cuttingContract = CuttingContract(true, cif, agreedNrTrees, location, parcel, block.timestamp);\r\n        bytes32 contractId = keccak256(abi.encode(cuttingContract));\r\n        contractInfo[contractId] = cuttingContract;\r\n        treesLeftForContract[contractId] = agreedNrTrees;\r\n        contracts.push(contractId);\r\n        companyContracts[cif].push(contractId);\r\n        return contractId;\r\n    }\r\n\r\n    function cut(bytes32 contractId) external {\r\n        require(actors.cutterCompanies(contractInfo[contractId].cif) == msg.sender, \"Not using the contract's company address\");\r\n        require(treesLeftForContract[contractId] > 0, \"No trees left for this contract\");\r\n        treesLeftForContract[contractId]--;\r\n    }\r\n\r\n    function getContractSetAttribute(bytes32 contractId) view external returns (bool) {\r\n        return contractInfo[contractId].set;\r\n    }\r\n\r\n    function getContractNrCutTrees(bytes32 contractId) view external returns (uint16) {\r\n        return contractInfo[contractId].agreedNrTrees - treesLeftForContract[contractId];\r\n    }\r\n\r\n    function getContractLocation(bytes32 contractId) view external returns (string memory) {\r\n        return contractInfo[contractId].location;\r\n    }\r\n\r\n    function getContractsCount() external view returns (uint) {\r\n        return contracts.length;\r\n    }\r\n}",
  "sourcePath": "D:\\Faculta\\Year_4\\LICENTA\\tree-chain-react\\contracts\\TreeCutting.sol",
  "compiler": {
    "name": "solc",
    "version": "0.8.13+commit.abaa5c0e.Emscripten.clang"
  },
  "schemaVersion": "3.4.4",
  "updatedAt": "2022-04-19T09:57:24.213Z",
  "networkType": "ethereum",
  "devdoc": {
    "kind": "dev",
    "methods": {},
    "version": 1
  },
  "userdoc": {
    "kind": "user",
    "methods": {},
    "version": 1
  }
}